:020000040800F2
:10000000980A00205502000825320008B52C000887
:1000100021320008E1050008313700080000000027
:100020000000000000000000000000002D32000869
:10003000690200080000000029320008853200082B
:100040006F0200086F0200086F0200086F020008CC
:100050006F0200086F0200086F0200086F020008BC
:100060006F0200086F0200086F0200086F020008AC
:100070006F0200086F0200086F0200086F0200089C
:100080006F0200086F0200086F0200086F0200088C
:100090006F0200086F0200086F0200086F0200087C
:1000A0006F0200086F0200086F0200086F0200086C
:1000B000493300086F0200086F0200086F02000851
:1000C0006F0200086F0200086F0200086F0200084C
:1000D0006F02000819370008253700086F02000872
:1000E0006F0200086F0200086F0200086F0200082C
:1000F0006F0200086F0200086F0200086F0200081C
:100100006F0200086F0200086F0200086F0200080B
:100110006F0200086F0200086F0200086F020008FB
:100120006F0200086F0200086F0200086F020008EB
:100130006F0200086F0200086F0200086F020008DB
:100140006F0200086F0200086F0200086F020008CB
:100150006F0200086F0200086D0600086F020008B9
:100160006F0200086F0200086F0200086F020008AB
:100170006F0200086F0200086F0200080000000014
:100180006F0200086F02000800F002F800F052F859
:1001900014A696E8000CB244B344DA4501D100F04D
:1001A00049F8BAE80F000FA696E83000A5EB040561
:1001B00004EB0607AAEB0704A7F101074FEA1515A0
:1001C0004FEA3414A4F10104AC4201D300F032F838
:1001D00013F0010F18BFFB1A43F0010300F001F800
:1001E000DBE718473451000054510000103A24BF97
:1001F00078C878C1FAD8520724BF30C830C144BF8C
:1002000004680C6070470000704700000023002461
:1002100000250026103A28BF78C1FBD8520728BF16
:1002200030C148BF0B6070471FB504F0BEFF1FBD53
:1002300010B510BD00F05AF91146FFF7F5FF03F0B5
:100240000FFB00F078F903B4FFF7F2FF03BC00F0F6
:100250007BF900000948804709480047FEE7FEE7B0
:10026000FEE7FEE7FEE7FEE7FEE7FEE7FEE7FEE766
:1002700004480549054A064B70470000353300081D
:100280008901000898040020980A002098060020A0
:100290009806002053EA020C00F069802DE9F04B2B
:1002A0004FF00006002B1FBFB3FA83F503FA05F4E5
:1002B00024FA05F65E4012BF1643B2FA82F502FA3E
:1002C00005F4C5F120051EBF22FA05FC44EA0C0422
:1002D000203556EA044C4FEA144418BF641C4FF012
:1002E00000084FF00009904271EB030C39D300294C
:1002F00019BFB1FA81F701FA07F6B0FA80F700FAF0
:1003000007F6C7F120071EBF20FA07FC46EA0C06D5
:100310002037B6FBF4FCA7EB0507103F07F01F0BD7
:10032000CBF120062CFA06F60CFA0BFB44BFB346C1
:100330000026202FA4BF5E464FF0000B5BEA060CA0
:1003400008BF4FF0010B19EB0B0948EB0608ABFB9C
:10035000027C06FB02CC0BFB03CCC01B71EB0C0137
:10036000C1E70B46024641464846BDE8F08B13B54F
:10037000084318BF4FF0FF300146AFF30080BDE8DF
:100380001C407047032A40F2308010F0030C00F04C
:10039000158011F8013BBCF1020F624498BF11F8BF
:1003A00001CB00F8013B38BF11F8013BA2F1040278
:1003B00098BF00F801CB38BF00F8013B11F00303F0
:1003C00000F05A80083AC0F0088051F8043B083A1F
:1003D00051F804CBA0E80810F5E7121D5CBF51F8F6
:1003E000043B40F8043BAFF30080D20724BF11F870
:1003F000013B11F801CB48BF11F8012B24BF00F8D5
:10040000013B00F801CB48BF00F8012B70474FF0CB
:10041000000200B5134694469646203922BFA0E854
:100420000C50A0E80C50B1F12001BFF4F7AF090760
:1004300028BFA0E80C5048BF0CC05DF804EB890051
:1004400028BF40F8042B08BF704748BF20F8022B94
:1004500011F0804F18BF00F8012B704770477047AC
:10046000704710B500F03AF8006810BD10B50446AA
:1004700000F034F8046010BD10B5203AC0F00B80D5
:10048000B1E81850A0E81850B1E81850A0E818508A
:10049000203ABFF4F5AF5FEA027C24BFB1E8185000
:1004A000A0E8185044BF18C918C0BDE810405FEA62
:1004B000827C24BF51F8043B40F8043B08BF7047DE
:1004C000D20728BF31F8023B48BF11F8012B28BFE3
:1004D00020F8023B48BF00F8012B704700487047E6
:1004E0001800002000487047180000207546FFF7EC
:1004F000F9FFAE4605006946534620F007008546E1
:1005000018B020B5FFF7B4FEBDE820404FF000065C
:100510004FF000074FF000084FF0000BAC46ACE87E
:10052000C009ACE8C009ACE8C009ACE8C00921F0DA
:1005300007018D46704710B50446AFF30080204692
:10054000BDE81040FFF77FBE01491820ABBEFEE7B3
:1005500026000200704700000146806B036C026CAD
:1005600013F0500F07D0D20648BF00F027B9806BB8
:10057000C26C0846104742F40071016401688A6841
:1005800012F0405F01D000F015B9027E002AFAD1C6
:10059000CA6A12F4700F02D08A685205F3D44A680E
:1005A00022F020024A60016C21F480710164016C28
:1005B000C90448BF00F0FEB8016C41F001010164BC
:1005C00000F0F8B8806B40210164416C41F00401F7
:1005D000416400F0F3B80000806B00F0EDB800005B
:1005E000FEE700002DE9F04381B040F2904940F26F
:1005F000F433C2F20009C2F2000399F800201B781C
:100600000C46D11A803101EB516303F08003591A73
:100610008039C9B2A14201D2002422E01519064650
:100620007F2D07D840F2F830C2F200001044314666
:10063000224612E06FF07F00871A40F2F838C2F2CB
:100640000008FDB208EB020031462A46FFF79AFE89
:10065000651B56FA87F140462A46FFF793FE89F854
:100660000050204601B0BDE8F083000040F2741055
:10067000C2F2000000F0B8BA72B600BFFEE7000098
:10068000B0B581B00022009290F83C20012A02D13E
:10069000022001B0B0BDD1F800E00122BEF10A0F86
:1006A00080F83C200ED31FFA8EF25200036812FA33
:1006B0008EF21E3A4FF0070C53F80C5F0CFA02F45E
:1006C000A54308E003680EEB4E02072553F8104FD0
:1006D000954024EA05051D608D6805FA02F21D6843
:1006E0002A431A604A68062A0ED802EB82014A1F82
:1006F00001681F2351F8345F934025EA03030B6020
:100700001FFA8EF3934014E0016802EB82030C2A77
:100710001FFA8EF203D851F8304F233B02E051F814
:100720002C4F413B1F259D4024EA050502FA03F3A7
:100730000D600A6842F2043C1A430A60C4F2010CDC
:100740000168BEF1120FACF5417308BF994205D1A3
:10075000DCF8002042F48002CCF800202EF00102E8
:10076000102A08BF994205D0002180F83C100020D3
:1007700001B0B0BDDCF80010BEF1100F41F4000173
:10078000CCF80010F0D140F20001C2F2000109687B
:100790004DF68362C4F21B32A1FB0212910C01EBF5
:1007A00081014900009100990029DDD000990139AB
:1007B000F8E7000070470000704700007047000035
:1007C000002804BF0120704710B5016C39B90446F8
:1007D00000F0A0F820460021616484F83C10016C10
:1007E000C9063AD4016C41F202129143023142F23D
:1007F00004320164C4F20102116821F44031116035
:10080000136890E812102343D0F810E013604A6890
:10081000012422F480724A604A68C0F6007442EAF9
:100820000E224A604A6822F040724A604A6842EAF0
:100830000C024A608A6822F400628A60C2688B688F
:100840001A438A60826A8B68A24223F070638B60CD
:100850008B6804D123F040520AE0012152E01A4390
:100860008A608A6822F040528A60C26A8B681A43A2
:100870008A608A6822F002028A608A68037E90F8A1
:10088000204042EA43028A604A6884B142F400622E
:100890004A604A684EF2000322F460424A60426AAB
:1008A000CFF6FF734C6803EB4232224301E022F49F
:1008B00000624A60CA6A40F2000C22F47002CA6206
:1008C000C3694269CFF6F07CCC6A0CEB0353234337
:1008D000CB628B6823F400738B6090F830308C68A7
:1008E00044EA43238B608B6823F480638B608B68BE
:1008F00043EA82228A6000214164026C012363F38F
:1009000001020264002280F83C20BDE81040084645
:100910007047000070B586B0044642F200002168BE
:10092000C4F20100002681420596CDE903660296D5
:10093000019601D006B070BD43F630010096C4F2B6
:1009400002014A6900F5644042F480724A614A69D2
:1009500002F480720092009A00960A6842F0020245
:100960000A60096801F002010091009901210191DA
:100970000321CDE9021601A900F0EAFA40F21415AC
:1009800046F21040C2F20005C4F202004FF480614A
:10099000C5E9000605F110004FF400624FF4005362
:1009A0004FF4807C80E80E104FF48030C5E90806D3
:1009B0002846C5E9026600F0DBF9002818BFFFF7FA
:1009C0005BFEA563AC6306B070BD0000B0B582B03D
:1009D0000023019390F83C30012B02D1022002B099
:1009E000B0BD94460A460123016880F83C308B680C
:1009F000DB0717D18B684DF6836443F001038B60EE
:100A000040F20003C2F200031B68C4F21B34A3FBD4
:100A10000434A30C03EB43030193019B13B1019B2B
:100A2000013BF9E78B68DB0503D58B6823F4807302
:100A30008B608C68036CE4070BD143F010010164F8
:100A400000F14401002001220B681A430A6002B041
:100A5000B0BD40F20174A34303F5807303644B6897
:100A60005B0504D5036C012464F30D330364046C4B
:100A70000023E4044FF0000444BF446C24F0060457
:100A8000446480F83C30836B40F2595E40F2D954A4
:100A9000C0F6000EC0F60004C3E90FE440F2C554EE
:100AA000C0F60004DC646FF022040C604C6842F273
:100AB000043544F080644C608C68C4F2010544F451
:100AC00080748C604C3104461846634600F0F0F99F
:100AD0002A682168D20605D0A5F54172914225D039
:100AE00002B0B0BD42F20002C4F20102914215D040
:100AF00042F20022C4F2010291420CD042F20012F2
:100B0000C4F201029142EBD12A68D20606D0A5F5C3
:100B100082729142E4D12A68D206E1D451F8082FBA
:100B200012F0405FDCD14FF080428DE74FF6045267
:100B3000CFF6FF72AA5812F0405FD1D108314FF0C2
:100B4000804281E770B5866D044600F0D1FA94F8D2
:100B50003510022925D105462068216C026822F053
:100B600016020260426922F08002426109B9A16C5A
:100B700019B1016821F008010160016821F001014B
:100B8000016000BF20680068C0070ED000F0B0FA16
:100B9000401B0628F6D320206065032084F835002A
:100BA0000CE080206065012008E0E06D3F2101FA43
:100BB00000F0B060012084F835000020002184F8A6
:100BC000341070BD90F83510022909D1052180F844
:100BD00035100068016821F00101016000207047B4
:100BE0008021416501207047F0B581B0002100915E
:100BF00040F20001C2F200010B68D0E9166148F230
:100C0000B51537680822C1F64E358A403A42A3FB33
:100C100005350CD003681C68640708D51C6824F0EF
:100C200004041C60B260426D42F001024265012280
:100C30008A403A4208D003685B691B0604D5B2605B
:100C4000426D42F00202426504228A403A4208D0D4
:100C500003681B689B0704D5B260426D42F0040232
:100C6000426510228A403A4216D001680B681B0781
:100C700012D5B2600B680A685B0306D4D20506D4AD
:100C80000A6822F008020A6001E011033FD4016CF7
:100C900011B1044688472046C26D202101FA02F3B3
:100CA0003B4241D001680F68FF063DD5B36090F824
:100CB00035700B68052F1AD123F016030B604B69B2
:100CC00023F080034B61036C0BB9836C1BB10B6881
:100CD00023F008030B603F219140B160012180F8AF
:100CE0003510016D002280F83420D9BB3EE00A683F
:100CF0005B0310D4D20512D40A6822F010020A60F5
:100D0000012180F83510002180F8341007E0816C53
:100D10000029BED1C0E7110301D4416C00E0C16BD2
:100D200011B1044688472046416DF9B1416DC907AC
:100D300016D0052180F835100168AA0A0B6823F047
:100D400001030B60009B01339342009302D80B68B0
:100D5000DB07F7D1012180F83510002180F834102D
:100D6000C16C19B101B0BDE8F040084701B0F0BD59
:100D70002DE9F041044600F0BBF9C4B1054602205C
:100D800084F835000020216884F83400086820F0D9
:100D90000100086020680168C9070BD000F0A8F9BD
:100DA000401B0528F6D90321202203207AE00120E8
:100DB000BDE8F081016848F23F02CFF21002D4E9A9
:100DC000013501EA020ED4E9032143EA0E032B4365
:100DD000D4E9056C1A43D4E907781143314341EA59
:100DE0000702616A42EA0802042942EA0C0303D1BD
:100DF000D4E90B273A43134303604269042922F0E4
:100E0000070241EA02012DD1D4E90A5341EA050162
:100E100043B3BCF5005F08D0BCF1000F12D1022D26
:100E200016D0012D07D09DB119E0032D17D8DFE8AA
:100E300005F00B0F0B02A3F1C072B2FA82F2520955
:100E40004AB90FE0032D02D2012222B90AE006D1ED
:100E5000C3F3006232B101214022012022E00022CE
:100E6000002AF8D100F0F8024AF6AB23103ACAF68D
:100E7000AA23A2FB033745F2103341613909C0F6BA
:100E80000003595C40F2FF3398435F2A4FF03F0262
:100E900088BF0430C4E9160102FA01F18160002222
:100EA00001210020626584F83510BDE8F081000062
:100EB00090F834C0BCF1010F04BF0220704770B538
:100EC0004FF0010C80F834C0D0F858E090F835C0ED
:100ED000BCF1010F37D14FF0020C80F835C04FF054
:100EE000000CC0F854C0D0F800C08468056CC06D18
:100EF000DCF80060402C26F48026CCF80060CCF8AA
:100F000004300B4604BF13460A463F2101FA00F0A5
:100F1000CCF80830CCF80C20CEF80800DCF8000043
:100F200040F01600CCF800002DB1DCF8000040F0D5
:100F30000800CCF80000DCF8000040F00100CCF81C
:100F40000000002070BD002180F83410022070BD28
:100F50002DE9F04F83B000F1200200F13E4741F649
:100F60000045009207F1FF77C4F2020508224FEA1C
:100F7000B726A84208BF0722072E38BF4FEAB7227C
:100F800000274FF0000A4FF0000801920AE000BF6E
:100F900008F101080AF1020AB8F1100F07F104077D
:100FA00000F09D800D68012202FA08FC15EA0C0988
:100FB000EED04D68032205F0030BABF10106012EC4
:100FC00002FA0AFE10D88668CC6826EA0E0604FAF1
:100FD0000AF4344384604468C5F3001524EA0C061F
:100FE00005FA08F52E434660BBF1030F1BD0C66817
:100FF0008D6826EA0E0605FA0AF52E43BBF1020FAC
:10100000C66010D16FF00302009D02EA580655F841
:1010100006C007F01C040F220B69A2402CEA020252
:10102000A3401A43AA5102684B6822EA0E0203F059
:10103000030606FA0AF6324313F4403F0260A7D0D3
:10104000002243F644030292C4F202031A6843F6F4
:10105000004442F480421A601A68C4F2010402F4A7
:1010600080420292029A28F003024FF6084C224472
:10107000CFF6FF7C52F80C3007F00C060F25B54078
:10108000AB43019D05FA06F6334342F80C30A268E3
:101090004B6842EA090643F60C4CDD0258BF22EACF
:1010A0000906A660C4F2010CDCF800209D0242EAA9
:1010B000090658BF22EA0906CCF8006062689D0361
:1010C00042EA090658BF22EA090666602268DB0385
:1010D00042EA090658BF22EA0906266058E703B02B
:1010E000BDE8F08F002A08BF090481617047000045
:1010F00040F28C40C2F200000068704740F21000DD
:1011000040F28C41C2F20000C2F2000100780A688D
:10111000104408607047000080B543F60040C4F2F8
:101120000200016841F400710160016841F48061CE
:101130000160016841F480710160032000F08CF8C7
:10114000032000F005F800F02BF8002080BD00001F
:10115000B0B540F21002C2F2000240F20001127873
:10116000C2F200014FF47A730968B3FBF2F204464D
:10117000B1FBF2F1084600F029FB0F2C4FF00105FE
:101180000CD858B94FF0FF3021460022002500F05E
:1011900037F840F21400C2F2000004602846B0BDE7
:1011A00082B0002043F640010190C4F202014A6877
:1011B00042F480424A604A6802F480420192019AF5
:1011C0000090086840F080500860086800F0805087
:1011D00000900098052002B000F03EB8002848BFFB
:1011E000704700F01F01012202FA01F11C2202EAFD
:1011F000D0004EF20012CEF2000281507047000083
:1012000010B54EF60C5CCEF2000CDCF80030C3F3E7
:10121000022E8EF00704042C28BF0424BEF1030321
:101220004FF0FF3E0EFA04F438BF0023A14399406B
:101230000EFA03F39A43114300F1604200F00F03EA
:10124000090102F56442043B6344002848BF03F1EE
:101250000C02117010BD00004EF60C51CEF20001D0
:101260000A684FF6FF031A4060F30A2242F08060DA
:1012700040F0FD7008607047002804BF01207047EF
:101280002DE9F04143F60808C4F202080446D8F8F4
:10129000F8030D4600F00700814207D988F8F8539B
:1012A000D8F8F80300F00700A84276D1206881073B
:1012B00017D5410705D5D8F8001041F4E051C8F81A
:1012C0000010010705D5D8F8001041F46041C8F8B6
:1012D0000010D8F80010A26821F0F0011143C8F8FE
:1012E0000010C0073FD1D8F8F80300F0070085428E
:1012F00007D288F8F853D8F8F80300F00700A8429E
:101300004BD12068410707D5D8F80010E26821F4D6
:10131000E0511143C8F80010000708D5D8F80000C4
:10132000216920F4604040EAC100C8F8000000F0E4
:101330007BF8D8F8001045F2F822C1F30311C0F68B
:101340000002515C40F2000220FA01F140F2140068
:10135000C2F200000068C2F200021160FFF7F8FE5E
:101360000020BDE8F0816068811E022907D258F88C
:10137000081C89015CBF0120BDE8F08110E0012854
:1013800007D158F8081C89035CBF0120BDE8F08133
:1013900006E058F8081C890702D40120BDE8F08156
:1013A000D8F8001021F003010843C8F80000FFF747
:1013B0009FFE064641F28837D8F80000616800F0C9
:1013C0000C00B0EB810F8ED0FFF792FE801BB8426D
:1013D000F2D90320BDE8F08140F2000043F6080195
:1013E000C2F20000C4F202010068096845F2083246
:1013F000C1F38221C0F60002515CC8407047000072
:1014000040F2000043F60801C2F20000C4F20201FB
:101410000068096845F20832C1F34231C0F60002A3
:10142000515CC8407047000010B543F60404C4F294
:101430000204606800F00C00082842F20040C0F28C
:10144000F40018BF10BD21682268236801F03F0234
:10145000C3F38811A1FB00010023FEF71BFF2168E5
:101460000222C1F3014102EB4101B0FBF1F010BDDA
:10147000002804BF012070472DE9F04182B00446E6
:10148000007843F60006C007C4F2020649D0B068EF
:1014900000F00C00042809D13068800341D5606851
:1014A00000283ED1012002B0BDE8F081B06800F014
:1014B0000C00082802D170684002EDD465683068DD
:1014C000B5F5A02F05D0B5F5803F09D140F48030A7
:1014D0000CE040F480203060306840F4803005E05B
:1014E00020F480303060306820F480203060FFF7D6
:1014F000FFFD002D054611D03068800311D4FFF7A1
:10150000F7FD401B6428F7D928E100BFFFF7F0FD85
:10151000401B64284FF0030000F2E0803068800335
:10152000F4D4207880071BD5B06810F00C0F09D0D8
:10153000B06800F00C00082840F085807068400218
:1015400000F181803068800703D5E068012840F011
:101550009A803068216920F0F80040EAC1003060CC
:101560002078000734D42078400746D4A5695DB3BD
:10157000B06800F00C00082840F09C80012D00F0BD
:1015800082807068E16900F480028A427BD1216A1E
:1015900000F03F028A4276D147F6C071626A01408C
:1015A000B1EB821F6FD1A16A4FF6FF73C903994354
:1015B00000F44032A1F580318A4264D1E16A00F042
:1015C0007060B0EB016F5ED1002002B0BDE8F08129
:1015D000606900285BD00020C4F247200121C0F8D8
:1015E000801EFFF785FD0546706F8007BBD4FFF7AF
:1015F0007FFD401B0228F7D9B0E0306C5FEAC008DD
:101600000AD400200190306C40F080503064306C7F
:1016100000F080500190019847F20007C4F20007E3
:101620003868C00526D4386840F480703860FFF709
:101630005FFD05463868C0051CD4FFF759FD401B07
:101640000228F7D98AE0E068002840F20000C4F2DE
:10165000472053D001210160FFF74AFD054600BF36
:10166000306880073FF575AFFFF742FD401B022849
:10167000F6D973E0A568306F052D51D0012D56D1F4
:1016800040F0010059E0012002B0BDE8F0810020E7
:10169000C4F247200021C0F8801EFFF729FD05464F
:1016A000706F80077FF55FAFFFF722FD401B0228B8
:1016B000F6D953E00027C4F2472700203866FFF729
:1016C00017FD022D05460DD1306880015DD5FFF76D
:1016D0000FFD401B02284FF00300F5D902B0BDE812
:1016E000F08100BF306880017FF56EAFFFF700FD2D
:1016F000401B02284FF00300F4D9EFE700210160FE
:10170000FFF7F6FC054600BF306880077FF528AF7D
:10171000FFF7EEFC401B02284FF00300F4D9DDE791
:1017200040F004003067306F40F0010005E020F029
:1017300001003067306F20F004003067FFF7D8FCFD
:10174000002D054641F2883713D000BF306F800767
:1017500012D4FFF7CDFC401BB842F7D9032002B0EA
:10176000BDE8F081FFF7C4FC401BB8424FF0030016
:10177000B4D8306F8007F5D4B8F1000F3FF5F6AE5E
:10178000306C20F080503064F0E604F11C052FCD61
:10179000084340EA8210D9034FF6FF729143A1F546
:1017A000803140EA05600843706001203866FFF729
:1017B0009FFC0446306880013FF506AFFFF798FCB8
:1017C000001B02284FF00300F4D987E7411E0020D8
:1017D000B0EB116F1CBF012070474EF21002CEF229
:1017E000000251604EF62351CEF20001F0230B703F
:1017F000072190601160704770470000704700003B
:1018000090F83C20012A04BF02207047B0B501F1D6
:1018100008053CCDD1E900CE23F47C5322F470526C
:101820001A432EF4F0431A432CF4E0431A4324F4F1
:10183000C0431A432A43C96922F480420368114312
:101840005964002180F83C100020B0BD90F83C2085
:10185000012A4FF0020255D010B5012380F83C3028
:1018600080F83D200268D2F804E0D2F808C00C6885
:101870002EF07003234341F2FF74C4F20004A2422D
:1018800053600DDC40F2FF73C4F200039A4215DC92
:10189000B2F1804F29D040F20043C4F2000322E0AD
:1018A00040F2FF33C4F201039A4212DC41F6000316
:1018B000C4F200039A4218D0002312E040F600035D
:1018C000C4F200039A4210D040F60043C4F2000371
:1018D00009E044F20003C4F201039A4205D040F249
:1018E0000043C4F201039A4204D149682CF08003FA
:1018F000194391600121002280F83D1080F83C20BE
:10190000BDE8104010467047002804BF0120704712
:1019100010B5044690F83D0028B9002084F83C003A
:10192000204600F01FF8022084F83D002068211DA9
:1019300001F010FD012084F8460084F83E0084F890
:101940003F0084F8400084F8410084F8420084F8A5
:10195000430084F8440084F8450084F83D000020EA
:1019600010BD000080B584B00068B0F1804F2CD06D
:1019700044F20001C4F20101884215D00021C4F2F2
:10198000010188421FD10020039043F64400C4F2B5
:101990000200016841F001010160006800F00100EF
:1019A0000390039804B080BD0020019043F64400EA
:1019B000C4F20200016841F480310160006800F463
:1019C00080300190019804B080BD0020029043F661
:1019D0004400C4F2020050F8041C012241F001014D
:1019E00040F8041C50F8040C012100F001000290A2
:1019F00002981C20FFF704FC1C2004B0BDE88040C6
:101A0000FFF7ECBB90F83D1001291CBF0120704787
:101A1000022180F83D10006841F2FF71C4F200011C
:101A200088420DDC40F2FF71C4F20001884215DCEF
:101A3000B0F1804F29D040F20041C4F2000122E011
:101A400040F2FF31C4F20101884212DC41F600018C
:101A5000C4F20001884218D0002112E040F60001D3
:101A6000C4F20001884210D040F60041C4F20001E7
:101A700009E044F20001C4F20101884205D040F2BD
:101A80000041C4F20101884206D1816801F00701DA
:101A9000062904BF00207047016841F00101016080
:101AA0000020704790F83D1001291CBF01207047AD
:101AB000022180F83D10006841F2FF72C168C4F253
:101AC0000002904241F00101C1600DDC40F2FF7163
:101AD000C4F20001884215DCB0F1804F29D040F2F9
:101AE0000041C4F2000122E040F2FF31C4F20101E2
:101AF000884212DC41F60001C4F20001884218D08D
:101B0000002112E040F60001C4F20001884210D02A
:101B100040F60041C4F2000109E044F20001C4F2C1
:101B20000101884205D040F20041C4F2010188421F
:101B300006D1816801F00701062904BF0020704723
:101B4000016841F0010101600020704790F83C20DD
:101B5000012A4FF002026ED080B5012380F83C309C
:101B600080F83D20D0F800C04FF67772DCF80830DE
:101B700023EA0202CCF808200B684F2B28DC1F2B2D
:101B800044DD202B45D0302B43D0402B40F0AC809F
:101B9000D1F804E0C968DCF82030DCF8202022F01D
:101BA0000102CCF82020DCF8182022F0F00242EAF2
:101BB000011123F00A0242EA0E02CCF81810CCF808
:101BC0002020DCF8081041F0470121F0300127E027
:101BD0006F2B32DDB3F5005F73D0B3F5805F21D09A
:101BE000702B40F08180D1E901E3C968DCF808205E
:101BF00043EA0E0322F47F4243EA01211143CCF869
:101C00000810DCF8081041F0770109E00BB1102B47
:101C10006AD1DCF8081021F07001194341F0070186
:101C2000CCF808100022012180F83D10002180F836
:101C30003C10BDE8804010467047502B21D0602BEF
:101C400052D1D1F804E0C968DCF82030DCF820205B
:101C500022F01002CCF82020DCF8182022F4704288
:101C600042EA013123F0A00242EA0E12CCF8181029
:101C7000CCF82020DCF8081041F0670121F01001B9
:101C8000CEE7D1F804E0C968DCF82030DCF8202089
:101C900022F00102CCF82020DCF8182022F0F0021B
:101CA00042EA011123F00A0242EA0E02CCF81810AF
:101CB000CCF82020DCF8081041F0570121F0200179
:101CC000AEE7D1E901E3C968DCF8082043EA0E0376
:101CD00022F47F4243EA01211143CCF80810DCF8DA
:101CE000081041F480419BE701229CE7002804BFD3
:101CF000012070472DE9F047044690F83D000D465D
:101D000028B9002084F83C00204600F049F8022061
:101D100084F83D00206844F20702816891438160A5
:101D2000211D01F017FB20684FF6FF78816882695A
:101D3000D0F820C0D5E9003ED5E9026A43EA01099E
:101D4000AB6922EA080246EA03234FF6FC46B34396
:101D5000D5E9076742EA0A0229691A4342EA0622DC
:101D600042EA01112CF0AA026B6942EA0E0241EA32
:101D7000073142EA0312C0F8089081610262012033
:101D800084F8460084F83E0084F83F0084F842005E
:101D900084F8430084F83D000020BDE8F08700008F
:101DA00080B586B0006840F60042C4F2000200210F
:101DB0009042CDE90411CDE90211019125D040F600
:101DC0000001C4F20001884245D1002043F63001F1
:101DD0000090C4F202010A6942F004020A610A6931
:101DE00002F004020092009A0090086840F002009D
:101DF00008600868C02100F00200009000980020F0
:101E0000C4F2020000F580601BE043F63000009150
:101E1000C4F20200026942F008020261026902F0A3
:101E200008020092009A0091016841F001010160EE
:101E30000068032100F00100009000980020C4F227
:101E400002000191022102910022059101A9CDE930
:101E50000322FFF77DF806B080BD000080B590F842
:101E60003E2090F83F3090F842E090F843C00429BB
:101E700009D099B9012A4FF0010208BFBEF1010F44
:101E800022D0104680BD012B4FF0010208BFBCF1EB
:101E9000010FF6D1022280F83F2012E0012A4FF014
:101EA000010208BF012BECD1BEF1010FE9D1BCF159
:101EB000010FE6D1022280F83E2080F83F2080F812
:101EC000422080F8432004E0022280F83E2080F87F
:101ED000422002680429136A04D031B923F00101B9
:101EE00001230DE023F0100109E023F0010111624C
:101EF000116A41F001011162116A21F010011023F1
:101F00001162116A1943116200680022016841F0F0
:101F100001010160104680BD7047000070B50446A5
:101F20000068C5680669B10716D515F0020113D01F
:101F30006FF002010161012121778069800703D0E0
:101F40002046FFF7E9FF05E0204600F0D5F82046DF
:101F500000F010FA00202077700718D515F0040063
:101F600015D020686FF0040101610221217780699A
:101F700010F4407F03D02046FFF7CEFF05E0204657
:101F800000F0BAF8204600F0F5F90020207730077D
:101F900017D515F0080014D020686FF00801016112
:101FA00004212177C069800703D02046FFF7B4FFE2
:101FB00005E0204600F0A0F8204600F0DBF9002004
:101FC0002077F00618D515F0100015D020686FF0B6
:101FD0001001016108212177C06910F4407F03D00E
:101FE0002046FFF799FF05E0204600F085F82046DF
:101FF00000F0C0F900202077F00718BF15F00100AD
:1020000002D1300609D412E020686FF001010161AD
:10201000204600F03FFA300609D515F0800006D0C2
:1020200020686FF0800101612046FFF7E5FB700634
:1020300009D515F0400006D020686FF0400101611D
:10204000204600F02FFBB00658BF70BD15F02000F1
:1020500008D021686FF0200220460A61BDE8704078
:10206000FFF7CCBB70BD000080B586B0006844F2BD
:102070000002C4F2010200219042CDE90411CDE931
:102080000211019117D00021C4F20101884230D120
:102090000020009043F63000C4F20200016841F0D5
:1020A0001001016000684FF4C04100F01000009082
:1020B000009801200FE043F630000091C4F20200C6
:1020C000016841F0100101600068602100F010001B
:1020D00000900098032001910221029100210590B7
:1020E00041F20000CDE90311C4F2020001A9FEF79C
:1020F0002FFF06B080BD00007047000090F83C3014
:10210000012B04BF022070474FEAB2020123032AC9
:1021100080F83C3000F2F8802DE9F043DFE802F06F
:1021200002AF3D7D036840F200461C6A1A6A24F043
:10213000020422F001021A621A46D3F804C052F8CF
:1021400018EF8F6843F48065C4F20106B54244EA93
:10215000070405D1CF6824F00C0427F004073C43A2
:102160000F68B54206D1D1E905582CF440762E43CC
:1021700046EA080C2EF073063743C3F804C09F618B
:102180004F6809695F631C629F6947F008079F6198
:102190009F6927F004079F61B0E0036840F20048A0
:1021A0001C6A1A6A24F4007422F480721A621A46B5
:1021B000D3F804C052F81CEF8F6843F48065C4F272
:1021C0000108454544EA072408D1CF6840F2FF469C
:1021D0003F0224F4406427EA06063443D1F8009015
:1021E000454506D1D1E905562CF440572E4347EA20
:1021F000061C2EF0730747EA0907C3F804C0DF6125
:102200004F680969DF631C62DF6947F00807DF6117
:10221000DF6927F00407DF6170E0036840F20045E2
:10222000D3F820C01A6A43F4806722F480521A62FD
:102230001A465C6852F81C8FD1F800E08E68C4F230
:102240000105AF4204D14D6924F4804444EA851469
:102250002CF4005747EA063728F4E64646EA0E26ED
:102260005C60DE614E6809691E641F62DF6947F4C5
:102270000067DF61DF6927F48067DF613DE00368A5
:1022800040F200481C6A1A6A24F0200422F010026E
:102290001A621A46D3F804C052F818EF8F6843F454
:1022A0008065C4F20108454544EA071407D1CF68A8
:1022B0006FF0400624F0C00406EA07163443D1F854
:1022C0000090454506D1D1E905562CF440672E43D0
:1022D00047EA860C2EF4E64747EA0927C3F804C00C
:1022E0009F614F6809699F631C629F6947F400679B
:1022F0009F619F6927F480679F61090213681943F2
:1023000000231160BDE8F043002180F83C1018461E
:1023100070470000002804BF0120704710B5044634
:1023200090F83D0028B9002084F83C00204600F0D9
:102330001FF8022084F83D002068211D01F00AF8F2
:10234000012084F8460084F83E0084F83F0084F8B9
:10235000400084F8410084F8420084F8430084F887
:10236000440084F8450084F83D00002010BD0000C2
:1023700070470000704700004122082908BF402232
:10238000042908BF3F22002908BF3E22825C012A9F
:102390001CBF01207047022241B1082909D004293D
:1023A00014BF80F8412080F83F2004E080F83E20F0
:1023B00001E080F84020006801F01F010122036A5B
:1023C00002FA01F123EA01020262026A0A4341F2BF
:1023D000FF71C4F20001884202620BDC40F2FF711F
:1023E000C4F20001884213DCB0F1804F45D040F2C6
:1023F000004115E040F2FF32C4F20102904214DCC9
:1024000041F60003C4F20003984236D0002314E0E2
:1024100040F60001C4F2000188422ED040F600418F
:10242000C4F20001884228D02EE044F20003C4F236
:102430000103984221D040F20043C4F201039842C4
:1024400022D1436C884243F400434364C6DD90428A
:1024500007DC41F60001C4F2000188420DD00021E2
:1024600007E044F20001C4F20101884205D040F2C5
:102470000041C4F20101884206D1816801F00701E0
:10248000062904BF00207047016841F00101016086
:102490000020704740F21C21C2F20001884218BFA0
:1024A000704740F26420C2F20000016840F2AC23A1
:1024B000486AC2F2000340F2C4021B68C2F2000282
:1024C00010800FFA80FC586A40F29C02C2F20002AF
:1024D000108000224A6240F2A0015A62C2F200015A
:1024E00000EE10CA91ED001AB8EEC00A91ED022A72
:1024F00091ED044A91ED055A31EE407A37EE420AE9
:1025000027EE051A24EE000A91ED033A30EE010A97
:1025100032EE021A91ED066A37EE411A31EE031AD5
:1025200026EE011A91ED083A31EE000A33EE001A58
:102530009FED5A0A81ED017AB4EE401AF1EE10FADD
:1025400081ED081A81ED032A81ED027A02DD81ED29
:10255000080A08E09FED520AB4EE401AF1EE10FAB4
:10256000B8BF81ED080A10B591ED080A01B2BDEEC1
:10257000C00A10EE10EA00EE101A40F27801C2F222
:10258000000191ED001AB8EEC00A91ED022A91ED1A
:10259000044A91ED055A31EE407A37EE420A27EEB1
:1025A000051A24EE000A91ED033A30EE010A32EEEC
:1025B000021A91ED066A37EE411A31EE031A26EE41
:1025C000011A91ED083A31EE000A33EE001A9FED40
:1025D000330A81ED017AB4EE401AF1EE10FA81ED82
:1025E000081A81ED032A81ED027A02DD81ED080AE5
:1025F00008E09FED2B0AB4EE401AF1EE10FAB8BFD6
:1026000081ED080A91ED080A4FF61841BDEEC00AA7
:10261000CFF6FF7110EE102A0B4612F57A7FC8BF75
:1026200013464FF47A7CB3F57A7FA8BF63465842CD
:1026300040F2D41400EAE270C2F20004002AC8BFDB
:10264000002024684FF00002D8BF1346E0632364E3
:102650001EF57A7FC8BF714640F2F424B1F57A7F47
:10266000A8BF614648423423C2F20004BEF1000F05
:10267000CCBF382300EAEE714FF038002468C8BFA1
:102680003420E1502250322001F01AFA40F2884002
:10269000C2F20000BDE8104001F08CB900007A449D
:1026A00000007AC47047000090F84230202B1CBF15
:1026B0000220704700294FF0010318BF002A01D102
:1026C0001846704703630023436381622221828599
:1026D000C285436480F84210016921B10168CA686B
:1026E00042F48072CA6001684A6942F001024A619C
:1026F000CA6842F02002CA60026B012A1CBF012096
:10270000704781B0002200920A68009249680091E7
:10271000009900BF016851E8031F026841F01001F1
:1027200042E80313002BF5D1002301B0184670478F
:10273000B0B540F23C34C2F20004A04206D040F2F0
:102740008434C2F20004A04218BFB0BD40F2F83594
:10275000C2F20005C9B22846FDF744FF20462946CB
:102760008022BDE8B040FFF79FBF00007047000027
:10277000B0B582B001680A68CC684B6902F02F05D9
:10278000202D04F0200505D125B102B0BDE8B040F0
:1027900000F0F2BE5FEA027C1EBF03F0010E04F4FB
:1027A000907313EB0E0340D1036BD50618D5012BA4
:1027B00016D114F0100313D0002201920A6801927E
:1027C0004A680192019A4969490647D4818DC28DB0
:1027D000C38D002B18BF914240F01A8102B0B0BDEA
:1027E00013062AD514F0800327D090F84120212A1F
:1027F000F4D18268B2F5805F03D10269002A00F04B
:102800003A81026A531C036212784A60C28C013A10
:102810001304C284E2D1C86820F08000C860C86890
:1028200040F04000C86002B0B0BDD10718BF14F43A
:10283000807167D151076BD471E05206CED514F088
:102840004002CBD0CA6822F04002CA60202180F842
:10285000411002B0BDE8B04000F028BAC26B116868
:1028600049688BB2002B42D0858DAB423FD2C185E7
:10287000D169B1F5807F33D0016851E8031F026848
:1028800021F4807142E80313002BF5D1016851E86F
:10289000051F026821F0010142E80513002BF5D164
:1028A000016851E8051F026821F0400142E8051364
:1028B000002BF5D1202180F842100021016300BFD8
:1028C000016851E8031F026821F0100142E8031378
:1028D000002BF5D1C16B04460846FEF733F92046BC
:1028E00002214163818DC28D891A89B2B9E0818D3F
:1028F00099427FF473AFD269B2F5807F7FF46EAFF7
:102900000222ADE0416C41F001014164510706D55E
:10291000BEF1000F03D0416C41F002014164910708
:1029200006D5BEF1000F03D0416C41F004014164B3
:10293000BCF1000F06D55EEA050103D0416C41F001
:1029400008014164416C00293FF448AF910604D569
:102950001DB1044600F010FE204601684969426C32
:1029600001F0400102F0080289184AD0016851E8DC
:10297000031F026821F4907142E80313002BF5D184
:10298000016851E8051F026821F0010142E80513C2
:10299000002BF5D1016B01290AD100BF016851E874
:1029A000031F026821F0100142E80313002BF5D148
:1029B000202180F84210002101630168496949061D
:1029C00054D500BF016851E8051F026821F040019D
:1029D00042E80513002BF5D1C16B002946D043F224
:1029E0008142C0F60002044608460A65FEF7EAF88E
:1029F00000283FF4F3AEE06B016D02B0BDE8B040DB
:102A000008470446FFF7B2FE0020606402B0B0BD84
:102A1000891A00BF026852E8032F036822F49072FB
:102A200043E80325002DF5D1026852E8052F03681D
:102A300022F0010243E80525002DF5D1202280F87F
:102A400042200022026300BF026852E8032F03689D
:102A500022F0100243E80325002DF5D1022289B2AD
:102A6000426302B0BDE8B040FFF762BE02B0BDE80D
:102A7000B040FFF77BBE026A32F8023B6FF35F2380
:102A80004B600262C2E60000002804BF01207047CC
:102A900010B5044690F8410028B9002084F84000A1
:102AA000204600F021F8242084F841002068C16805
:102AB00021F40051C160204600F0BEFD206801698C
:102AC00021F490410161416921F02A014161C1680D
:102AD00041F40051C16000202021606484F841105D
:102AE00084F84210606310BD70B586B0026844F28D
:102AF0000043C4F2000300219A42CDE90411CDE95C
:102B00000211019151D041F20001C4F201018A4247
:102B10007DD10546002643F630000096C4F202003F
:102B2000416941F010014161416901F010010091DA
:102B300000990096016841F001010160006801A957
:102B400000F00100009000984FF4C0600190022056
:102B5000CDE9020603200490072005900020C4F26E
:102B60000200FEF7F5F940F2741446F2B840C2F2E2
:102B70000004C4F202004FF00061402284E84700E4
:102B80004FF400304FF48063C4E908062046C4E9DE
:102B90000436C4E90666FEF7EBF8002818BFFDF717
:102BA0006BFDAC63A563252429E043F6300000915A
:102BB000C4F20200026942F400320261026902F4C6
:102BC00000320092009A0091026842F0080202600E
:102BD000006800F00800009000986020019002203A
:102BE000CDE9020103200490072005900020C4F2E3
:102BF000020000F5406001A9FEF7AAF9262420464C
:102C000003210322FEF7FCFA2046FEF7E7FA06B09E
:102C100070BD000070470000B0B590F84140202C16
:102C20001CBF0220B0BD134600294FF0010218BF9F
:102C3000002B01D11046B0BD4FF0000C21240162E1
:102C40008384C384C0F844C080F8414002680446CD
:102C5000806B43F2315E43F27155C0F6000EC0F650
:102C60000005C0E90FE543F28D45C0F600050432CA
:102C7000C0E9135CFEF71CF930B11020606420201D
:102C800084F841000120B0BD20686FF04001016070
:102C9000206850E8050F216840F0800041E80502F7
:102CA000002AF5D100221046B0BD00007047000098
:102CB00070470000FEE7000010B584B040F2CC0081
:102CC000C2F2000042F2000C4FF080544FF0C0629C
:102CD0000021C4F2010C4FF44033C0E90A2401245E
:102CE000CDE90211CDE90011017680F82010C46110
:102CF00080F83040C0E900C3C0E90211C0E9041403
:102D0000FDF75EFD002818BFFDF7B6FC0820CDE9F1
:102D1000000440F2CC00C2F2000069460294FDF7C4
:102D2000AFFC002818BFFDF7A7FC04B010BD0000E1
:102D300080B582B00020019043F63000C4F202005A
:102D40000168022241F4800101600068022100F460
:102D50008000019001984620FEF752FA462002B00A
:102D6000BDE88040FEF73ABAF0B587B0002643F6DA
:102D700030000696CDE90466CDE902660196C4F2FC
:102D80000200016841F2000441F010010160016895
:102D9000C4F2020401F01001019101990196016849
:102DA000002241F08001016001684FF4806501F06C
:102DB0008001019101990196016841F001010160D2
:102DC000016801F00101019101990196016841F04A
:102DD00002010160016801F002010191019901966F
:102DE000016841F00801016000684FF4806100F063
:102DF0000800019001982046FEF774F9029502AD93
:102E0000012720462946CDE903770596FEF7A0F86D
:102E10000820CDE9020602200490A4F5806029462E
:102E2000FEF796F8032002A9C1C120462946FEF705
:102E30008FF807B0F0BD000010B596B040F2D41086
:102E400000220021C2F20000C4F2010240F2473326
:102E500040F2E7344FF0800C1591CDE91311CDE924
:102E60001111CDE90F11CDE90D11CDE90B11CDE90E
:102E70000911CDE90711CDE90511CDE90311CDE91E
:102E80000111C0E90023C0E90214C0E90411C0F82F
:102E900018C0FEF739FD002818BFFDF7EDFB4FF411
:102EA0008050129040F2D410C2F2000012A9FEF736
:102EB0004DFE002818BFFDF7DFFB40F2D410C2F230
:102EC0000000FFF727FA002818BFFDF7D5FB40F2F6
:102ED000D4100024C2F2000010A9CDE91044FEF77E
:102EE000B5FC002818BFFDF7C7FB6020CDE9090439
:102EF00040F2D410C2F2000009A90822CDE90B4427
:102F0000CDE90D440F94FFF7F9F8002818BFFDF73D
:102F1000B3FB40F2D410C2F2000009A90C22FFF763
:102F2000EDF8002818BFFDF7A7FB00200590CDE9BC
:102F30000300CDE901004FF40051089040F2D41095
:102F40000691C2F2000001A9FEF75AFC002818BF42
:102F5000FDF792FB40F2D410C2F20000FFF784F8B4
:102F600016B010BD80B586B040F21C200021C2F220
:102F7000000041F2873CCDE90411CDE90211CDE911
:102F800000114FF0804240F24733C0E9021C01615A
:102F90008021C0E900238161FEF7B6FC002818BF3C
:102FA000FDF76AFB4FF48050029040F21C20C2F201
:102FB000000002A9FEF7CAFD002818BFFDF75CFB60
:102FC000202000900020019040F21C20C2F200005E
:102FD0006946FEF73BFC002818BFFDF74DFB06B025
:102FE00080BD0000B0B58CB003AC20462421FDF7B5
:102FF0000EFA40F2642040F600010025C2F2000003
:10300000C4F20001C0E900158021816103214FF65F
:10301000FF72CDE903150121C0E90252CDE9051582
:103020000622CDE909152146CDE900550561CDE916
:1030300007250B92FEF75AFE002818BFFDF71CFB70
:1030400040F26420C2F200006946CDE90055FEF767
:10305000FDFB002818BFFDF70FFB0CB0B0BD000052
:10306000B0B58CB003AC20462421FDF7D0F940F276
:10307000AC2040F600410025C2F20000C4F200017D
:10308000C0E90015802181610321039102214FF6DF
:10309000FF7204910121C0E90252CDE90515062213
:1030A000CDE909152146CDE900550561CDE9072592
:1030B0000B92FEF71BFE002818BFFDF7DDFA40F269
:1030C000AC20C2F200006946CDE90055FEF7BEFB18
:1030D000002818BFFDF7D0FA0CB0B0BD80B58CB099
:1030E00040F2F4200021C2F2000044F2000240F25B
:1030F000E73C0B91CDE90911CDE90711CDE90511A7
:10310000CDE90311CDE90111C4F2010240F24733C8
:10311000C0E9021C01618021C0E900238161FEF742
:10312000F3FB002818BFFDF7A7FA4FF48050089072
:1031300040F2F420C2F2000008A9FEF707FD0028C3
:1031400018BFFDF799FA40F2F420C2F20000FFF731
:10315000E1F8002818BFFDF78FFA602001900020E9
:10316000CDE90200059040F2F420C2F2000001A96E
:103170000022FEF7C3FF002818BFFDF77DFA40F2DA
:10318000F420C2F2000001A90422FEF7B7FF0028D4
:1031900018BFFDF771FA40F2F420C2F20000FEF70A
:1031A00063FF0CB080BD000080B540F23C3041F2BE
:1031B0000001C2F20000C4F2010100234FF00C0C28
:1031C0004FF4E13280E80E00C0E90333C0E905C3E3
:1031D000C361FFF759FC002808BF80BDBDE88040EF
:1031E000FDF74ABA80B540F2843044F20041C2F2A1
:1031F0000000C4F2000100234FF00C0C4FF4E13248
:1032000080E80E00C0E90333C0E905C3C361FFF7DE
:103210003BFC002808BF80BDBDE88040FDF72CBA0C
:10322000FEE70000FEE70000704700007047000066
:103230009FED121A9FED122AB4EE410AF1EE10FA38
:10324000B8BFB0EE410AB4EE420AF1EE10FAC8BFC0
:10325000B0EE420A012809D0022818BF704740F298
:10326000A000C2F2000080ED000A704740F2780032
:10327000C2F2000080ED000A704700BF0000B4C336
:103280000000B443FDF73ABF70B592B006AC2046DB
:103290003021FDF7BCF8002543F640000595CDE947
:1032A0000355CDE901550095C4F2020001680226DC
:1032B00041F080510160006800F08050009000985B
:1032C00047F200000095C4F20000016841F480411B
:1032D0000160006800F48040009000980120069092
:1032E0004FF4803007904FF480000D9008200E902E
:1032F000A820CDE90F060420119020460C96FEF779
:10330000B7F810B172B600BFFEE70F20CDE9010695
:103310004FF4A05004904FF48050059001A805216F
:103320000395FDF7A9FF10B172B600BFFEE712B01A
:1033300070BD00004EF68850CEF20000016841F4E6
:10334000700101607047000040F21C20C2F20000D2
:10335000FEF7E4BDB0B540F6FF3E0568C4F2000ECE
:1033600040F2004C7045C4F2010C0FDCB0F1804F0C
:1033700019D040F20043C4F20003984213D040F643
:103380000003C4F2000398420DD011E040F6004360
:10339000C4F20003984206D0604504D00023C4F272
:1033A0000103984204D14B6825F0700243EA0205FC
:1033B00041F6FF73C4F2000398420FDC704521DC34
:1033C000B0F1804F41D040F20043C4F20003984274
:1033D0003BD040F60003C4F2000334E043F6FF7331
:1033E000C4F2010398421EDC42F20003C4F200035F
:1033F00098422AD00023C4F20103984225D06045A8
:1034000023D027E040F60043C4F2000398421CD0CA
:1034100041F60003C4F20003984216D041F600437F
:10342000C4F200030FE044F20003C4F20103984227
:103430000BD044F60003C4F20103984205D044F2D5
:103440000043C4F20103984204D1CB6825F44072D2
:1034500043EA02050A688C684B69C46240F48064E0
:103460008262644504BF09690163026825F0800136
:1034700042F0040219430260012242610160B0BDC2
:10348000806B0021C185FFF771B90000806B016876
:10349000496990F84120212A11D111F080010ED004
:1034A0000021C184016851E8031F026821F0C001B6
:1034B00042E80313002BF5D1202180F84110016868
:1034C000496990F84220222A2BD111F0400128D0DE
:1034D0000021C185016851E8031F026821F4907141
:1034E00042E80313002BF5D1016851E8051F02687B
:1034F00021F0010142E80513002BF5D1016B0129F0
:103500000AD100BF016851E8031F026821F01001D1
:1035100042E80313002BF5D1202180F8421000214E
:103520000163416C41F010014164FFF71FB90000D5
:103530000168806B0968C90548BFFFF7B7BB002168
:10354000C18400BF016851E8051F026821F08001B5
:1035500042E80513002BF5D1016851E8031F02680A
:1035600041F0400142E80313002BF5D17047000001
:10357000806BFFF79DBB000090F84210222918BF16
:1035800070478268B2F5805F02D1016900294AD094
:10359000816AB2F5805F07D00AB9026922B1026878
:1035A000526802F07F0201E0026852680A70816A84
:1035B00001318162C18D01390A04C18500D0704793
:1035C0000168CA6822F02002CA60CA6822F48072C8
:1035D000CA604A6922F001024A61202180F8421043
:1035E00000214163026B012A18BFFFF713BB81B0B2
:1035F000016300BF016851E8031F026821F0100158
:1036000042E80313002BF5D101680A68D20606D5FB
:10361000002200920A680092496800910099818D09
:1036200001B0FFF785B80168826A49686FF35F21CE
:1036300022F8021B8262BDE7B0B50446006804F1BF
:1036400008030ECB0569194325F440552A4302614E
:103650006269E3691143C268194349F20C639A43F2
:103660001143C1604169A26921F4407141F20043F4
:10367000114340F48062C4F201039A42416102D1D5
:10368000FDF7BEFE01E0FDF7A7FEE1694FF69C7570
:1036900063681922C0F6FF75B1F5004FA0FB020167
:1036A0001CD15A00DB0FFCF7F5FD48F21F51C5F2A3
:1036B000EB11A0FB01235A0905F1805302FB030023
:1036C000322303EBC000A0FB01014FF4F87000EAC5
:1036D000111000EB0210C1F3421118E09A009B0F89
:1036E000FCF7D8FD48F21F51C5F2EB11A0FB0123F6
:1036F0005A0902FB0500322303EB0010A0FB010175
:10370000F02000EA511000EB0210C1F3431108440D
:1037100021688860B0BD000040F23C30C2F2000079
:10372000FFF726B840F28430C2F20000FFF720B85D
:10373000FEE700000021C0E90011C0E902110161AB
:103740007047000040F2CC0040F28841C2F2000015
:10375000C2F200010122FDF739B90000018840F6EC
:10376000FE73481E82B240F2C800C2F2000090ED23
:10377000000A9A420DD801EE101AB8EE411AB6EEC0
:10378000002A21EE021A20EE020A30EE010A80ED34
:10379000000A9FED041A9FED042A20EE010A80EE34
:1037A000020A70473333114200F07F45012808D1E7
:1037B00080B540F2E030C2F20000FFF7BBFFBDE889
:1037C000804040F2C600C2F2000000210170704744
:1037D00040F2C40240F29C01C2F20002C2F20001B7
:1037E000012808BF0A46B2F900009FED061A00EE54
:1037F000100AB8EEC00A9FED042A20EE010A80EEFE
:10380000020A7047DD362239CDCC4C3D9FED041ABB
:103810009FED042A20EE010A80EE020A704700BFE5
:10382000CDCC4C3DDD36223940F20402C2F200021A
:1038300092ED001AB6EE002A20EE811A21EE021A4D
:1038400030EE411A80ED001A92ED001A20EE811A36
:1038500021EE021A30EE010A81ED000A70470000E5
:10386000FDF75AFCFFF710FDFFF77EFAFFF760FA4D
:10387000FFF79AFCFFF720FAFFF774FBFFF7DCFA7B
:10388000FFF7B0FBFFF7ECFBFFF728FCFFF7AAFC04
:1038900040F2F83440F23C30C2F20004C2F20000C0
:1038A00021468022FEF700FF40F28430C2F2000081
:1038B00021468022FEF7F8FE40F21C20C2F20000F2
:1038C000FEF7F0F8FFF73EFF00F00CF840F2D034BE
:1038D000C2F20004204600F00DFA204600F08EF9F6
:1038E000F8E70000F0B581B040F26424C2F20004B1
:1038F0002046FEF787F820463C21FEF7AFFA40F25B
:10390000AC25C2F200052846FEF77CF828463C218B
:10391000FEF7A4FA40F2D417C2F200073846FEF7C9
:1039200071F840F2F426C2F200063046FEF76AF85B
:103930003846FEF7EFFC3868416C41F400414164C1
:1039400038460821FEF718FD38460C21FEF714FD15
:103950003046FEF7DFFC304600210027FEF70CFD65
:1039600030460421FEF708FD28684FF07C5147627D
:1039700020684CF6CD42476240F2A000C2F200003F
:103980000762C0E90077C0E9027700F11003C76160
:1039900040F27800C2F20000C3F6CC5286C300F1B8
:1039A0001003C0E90077C0E9027786C3C0E9077752
:1039B00001B0F0BD80B5FFF7D1FE9FED3F1AB6EE26
:1039C000002A20EE011A31EE021ABCEEC11A48F2AA
:1039D0001F5111EE100AC5F2EB11A0FB01125209A2
:1039E0006423BDEEC00A02FB130240F2784010EEE1
:1039F000101AC2F20000417040F2E031C2F2000140
:103A000091ED000A9FED2D4A91ED011A20EE040A76
:103A100030EE020ABDEEC00A827010EE102A21EECE
:103A2000040A91ED023A30EE020ABDEEC00AA0F897
:103A3000032010EE102A23EE040A91ED035A30EE13
:103A4000020ABDEEC00AA0F8052010EE102A25EEED
:103A5000040A30EE020ABDEEC00AA0F8072010EEFC
:103A6000102A91ED040AA0F8092020EE040A30EE95
:103A7000020ABDEEC00A10EE101AA0F80B10AA211F
:103A800001704FF4FC41C18100214FF0FF3200BFB3
:103A900083185B78013219440D2A8173F8D140F202
:103AA0003C3040F27841C2F20000C2F20001102224
:103AB000BDE88040FFF7B0B80000C84200007A447B
:103AC0002DE9F0412DED048B00EE100A9FED461A12
:103AD000B8EE400A012080EE019AFFF779FE02203D
:103AE000B0EE408AFFF774FE40F20400C2F200001C
:103AF00090ED001A30EE482A82EE011A40F2E034CE
:103B000038EE000AB6EE002AC2F2000420EE020AE5
:103B100094ED042A9FED363A84ED000A84ED011AF3
:103B200021EE091A31EE021AB4EE431AF1EE10FA40
:103B300084ED041A02DD9FED2D2A08E09FED2E2A68
:103B4000B4EE421AF1EE10FA05DA9FED2A2A31EEB0
:103B5000021A84ED041A29EE000A10EE100A01F090
:103B6000B3FA804620690D4601F0AEFA41EC180B1D
:103B7000B0EE480AF0EE680A00F02AF9A068B0EE4C
:103B8000409AF0EE609A01F09FFA06460F4653EC19
:103B9000192B4046294601F09FF832463B4600F07B
:103BA0003DFE00F009FEB0EE480AF0EE680AA060A3
:103BB00000F072F9E068B0EE408AF0EE608A01F041
:103BC00083FA06460F4653EC182B4046294601F06F
:103BD00083F832463B4600F021FE00F0EDFDE06048
:103BE000BDEC048BBDE8F08100007A44DA0FC9C057
:103BF000DA0F4940DA0FC940DA0F49C070B5044600
:103C000000204FF0FF3100BF6218527801310D29BA
:103C10001044F9D1A17BC0B2884262D1E57B40F269
:103C20000406022DC2F2000606D0012D59D1607B98
:103C3000002818BFFFF7BAFDB4F90100B4F903106A
:103C400000EE100A9FED291A02EE101AB8EEC00A13
:103C5000B8EEC22A80EE010AC2EE010A40F2CC3070
:103C6000C2F2000090ED002A9FED211AB0EEC22AA8
:103C7000B4EE412AF1EE10FA1CDDB0EEE02AB4EE0B
:103C8000412AF1EE10FA15DA40F2780140F2A00272
:103C9000C2F20001C2F2000291ED081A92ED082A68
:103CA00031EE021AB6EE002A21EE021A81ED081A50
:103CB00082ED081AC0ED000A301D06F10801FFF779
:103CC000B3FD96ED010AFFF7A1FD0120FFF7B0FA61
:103CD00096ED020AFFF79AFD0220FFF7A9FA28469F
:103CE00000E003200021E17370BD00BF00007A44B2
:103CF0000AD7233C40F2904140F2F43CC2F200016A
:103D0000C2F2000C09789CF80030C91A803101EB2E
:103D1000516222F07F02891A10293CBF00207047AF
:103D2000B0B540F2F83E03F07F01C2F2000E1EF87B
:103D30000110AA292BD10022002100BFD41804F0C1
:103D40007F041EF80440D5B221440D2D02F101027A
:103D5000F4D303F10E0202F07F021EF80220C9B272
:103D6000914214D14FF0FF319CF800204B1C1A44B3
:103D700002F07F021EF8022001444A700F2B194600
:103D8000F2D19CF8000000F11001102001E0591C54
:103D9000002001F07F018CF80010B0BD03B4019841
:103DA0004100009850EAC12018BF04204A0D18BFF6
:103DB00040F0010040F2FF72B2EB515F08BF40F0EB
:103DC0000200012808BF052002B070470000000073
:103DD00010B52F499FED2C1B2DED020B84B00598DB
:103DE00020F000408842D8BF9DED040B2DDD29490D
:103DF000884209D1049840B94FF00100FCF736FB26
:103E000000F0A2FC06B010BD05DB9DED040B00F038
:103E10008FFC06B010BD68469DED040B00F0A0F8C5
:103E200010F0030004BF9DED021B9DED000B0CD0B4
:103E300001280ED09DED021B9DED000B022817D02E
:103E4000012000F0DDFB06B010BD00F0A5FA06B0C1
:103E500010BD9DED021B9DED000B012000F0D0FB7D
:103E600051EC100B00F09CFC06B041EC100B10BDA7
:103E700000F092FA51EC100B00F092FC06B041EC0D
:103E8000100B10BD0000000000000000000000004A
:103E9000FB21E93F0000F07F10B52F499FED2C1B5F
:103EA0002DED020B84B0059820F000408842DCBF65
:103EB00000209DED040B32DD2849884209D1049889
:103EC00040B94FF00100FCF7D1FA00F03DFC06B01C
:103ED00010BD05DB9DED040B00F02AFC06B010BD03
:103EE00068469DED040B00F03BF810F0030011D084
:103EF000012818D09DED021B9DED000B02281AD061
:103F000000F04AFA51EC100B00F04AFC06B041EC0C
:103F1000100B10BD9DED021B9DED000B012000F06C
:103F20006FFB06B010BD9DED021B9DED000B00F078
:103F300033FA06B010BD012000F062FB51EC100B0B
:103F400000F02EFC06B041EC100B10BD000000008C
:103F50000000000000000000FB21E93F0000F07FAE
:103F60002DE9F14F04462DED020B2DED088B8AB0A3
:103F70009FEDE70B80ED020B139EE74826F000450E
:103F800085420ADC9DED120B002084ED000B0AB087
:103F9000BDEC088B03B0BDE8F08FE0489FEDE0ABCF
:103FA0009FEDE1BBA84247DDE14F9FEDE39B9FED15
:103FB000E48B9DED120B53EC1A2B51EC100B002EE1
:103FC0001CDD00F093FF41EC100BBD4208D053EC18
:103FD0001B2B51EC100B00F089FFC4E900010BE032
:103FE00053EC192B51EC100B00F080FF53EC182B05
:103FF00000F07CFFC4E900010120C8E700F00EFCDE
:1040000041EC100BBD4208D053EC1B2B51EC100BB4
:1040100000F004FCC4E900010BE053EC192B51EC57
:10402000100B00F0FBFB53EC182B00F0F7FBC4E97E
:1040300000014FF0FF30AAE7C348A84279DB9DEDAD
:10404000120B51EC100B00F09FFB41EC180B9FED95
:10405000C00B53EC102B00F03FFE9FEDBF1B53EC49
:10406000112B00F0DBFB00F0DDFD074600F009FE40
:1040700041EC190B53EC1A2B00F02EFE53EC182BCD
:1040800000F028FF41EC180B53EC1B2B51EC190BE3
:1040900000F022FEDFF8C8A241EC100B4FEA1558E1
:1040A0000125FA4453EC102B51EC180B00F01EFFC5
:1040B000032DC4E900013DD0C1F30A5005EB4511C1
:1040C000A8EB00001139814234DA0AEB051BB0EE8F
:1040D00048AA9BED000BF0EE68AA53EC102B51ECB4
:1040E000190B00F0F9FD41EC1B0B51EC1A0B53ECD2
:1040F0001B2B00F0FBFE41EC180B51EC1A0B53ECA0
:10410000182B00F0F3FE53EC1B2B00F0EFFE9BEDA1
:10411000020B41EC1A0B53EC102B51EC190B00F075
:10412000DBFD53EC1A2B00F0E1FE41EC100B6D1C93
:10413000B8E70EE0002EA8BF3846BFF628AF94EDD2
:10414000000B51EC100B00F02BFBC4E9000178428E
:104150001DE7C6F3130040F4801EC6F30A50A0F218
:10416000F530471100F01F05C5F12000DDF848B01B
:1041700008900020069007900520EC467949002D14
:1041800007EB0002794408BF51F8221009D051F81A
:10419000223001EB8201AB404A68089922FA01F112
:1041A0001943A1FB0E26A1FB0B131A449A4234BFFC
:1041B0000123002303EB06080CEB8003D3E901A6DF
:1041C0000E448E4234BF0121002192448A4411B131
:1041D000924502D903E0924501D2012100E000217D
:1041E000C3E901A641444CF82010011EA0F10100D2
:1041F000C4DC029800F10050850F0298DDE90367E6
:104200008000DDF8148000F03CFD41EC1A0B3046D4
:1042100000F04EFD9FED541B53EC112B00F05CFDA4
:1042200041EC1B0B384600F043FD9FED511B53EC56
:10423000112B00F051FD41EC180B404600F038FD09
:104240009FED4D1B53EC112B00F046FD41EC190B7B
:1042500051EC180B53EC192B00F0E0FA53EC1B2B2C
:1042600000F0DCFA53EC1A2B00F0D8FACDE9080183
:10427000002008909DED080B53EC1A2B51EC100B0D
:1042800000F034FE53EC1B2B00F030FE53EC182BE7
:1042900000F02CFE53EC192B00F01CFE9FED381B98
:1042A00053EC112B00F018FD9FED370B41EC180B70
:1042B00053EC102B9DED080B51EC100B00F00CFD96
:1042C00053EC182B00F0AAFA9FED310B41EC180BC0
:1042D00053EC102B9DED080B51EC100B00F0FCFC87
:1042E00053EC182B00F09AFA41EC100B139810F0D5
:1042F000004F06D06D4251EC100B00F051FA41EC2A
:10430000100B284684ED000B41E600000000000081
:104310000000000000000000FB21E93F7CD90240C2
:1043200000004054FB21F93F3163621A61B4D03D73
:10433000FB21F93F000000000000601A61B4D03D8D
:104340007370032E8A19A33BFB2139410000000042
:1043500083C8C96D305FE43F000000000000E03F0B
:104360005A110000A8100000000000000000103EDC
:10437000000000000000103C000000000000103AA7
:10438000182D4454FB21F93D3326A611460B113C50
:1043900000000054FB21F93D10B52DED040B2DED6F
:1043A000088B82B0B0EE419AF0EE619A0B9820F043
:1043B00000449FED4BABB4F1795F11DA9DED0A0B30
:1043C00051EC100B00F02EFC002801BFB0EE4A0AA1
:1043D000F0EE6A0A02B0BDEC088B04BF04B010BD59
:1043E0009DED0A0B53EC102B51EC100B00F074FCFC
:1043F00041EC180B3C480621B0EE480AF0EE680A82
:10440000784400F081F853EC182B51EC100B00F0BD
:1044100063FC9DED0A0B41EC1B0B53EC192B51EC8B
:10442000100B00F059FC41EC190B53EC1B2B51EC19
:10443000180B00F051FC53EC192B00F057FD9FEDC9
:104440002C0B41EC190B53EC102B51EC180B00F01A
:1044500043FC41EC100B2848844210DA53EC192B32
:1044600051EC100B00F042FD53EC1A2B00F032FD22
:1044700041EC100B02B0BDEC088B04B010BD1F481E
:10448000A042BCBF9FED1E1B8DED001B06DBA4F5FB
:1044900000100190002000909DED001B51EC100BCE
:1044A00053EC112B00F022FD9DED000B41EC180B9D
:1044B00053EC102B51EC1A0B00F018FD41EC1A0BC9
:1044C00053EC192B51EC180B00F010FD53EC1A2B88
:1044D00000F000FD41EC100BCCE7000000000000F4
:1044E000000000000000F03FCC0D000000000000C4
:1044F000000000000000E03F3333D33F0000E93FFD
:10450000000000000000D23F70B504462DED028B84
:104510004D1E00EBC500B0EE408AF0EE608A90EDD3
:10452000000B35F0060017D053EC182B51EC100B94
:1045300000F0D2FB41EC100B6D1E04EBC50090EDBA
:10454000001B51EC100B53EC112B00F067F941EC00
:10455000100B35F00600E7D1022D36D0042D1CD00B
:10456000062D1CBFBDEC028B70BD53EC182B51EC1B
:10457000100B00F0B1FB94ED0A1B53EC112B00F073
:104580004DF953EC182B00F0A7FB94ED081B53ECEE
:10459000112B00F043F941EC100B53EC182B51ECAC
:1045A000100B00F099FB94ED061B53EC112B00F05F
:1045B00035F953EC182B00F08FFB94ED040B53EC02
:1045C000102B00F02BF941EC100B53EC182B51EC95
:1045D000100B00F081FB94ED021B53EC112B00F04B
:1045E0001DF953EC182B00F077FB94ED001B53ECF6
:1045F000112B00F013F9BDEC028B41EC100B70BDD8
:1046000031B504462DED040B2DED0A8BB0EE41BA09
:10461000F0EE61BA0B989DED0A0B20F00040B0F16E
:10462000795F0DDA51EC100BFFF7B8FB042808BFD7
:1046300000F09AF89DED0A0BBDEC0A8B05B030BD79
:1046400053EC102B51EC100B00F046FB41EC180B17
:104650009DED0A0B53EC182B51EC100B00F03CFBBA
:1046600041EC190B2C48B0EE480AF0EE680A05211F
:104670007844FFF749FF9FED2ACBB0EE40AAF0EE59
:1046800060AA9CB353EC1C2B51EC190B00F024FBDB
:1046900041EC1C0B53EC1A2B51EC190B00F01CFBDA
:1046A0009FED210B41EC190B53EC102B51EC1B0B24
:1046B00000F012FB53EC192B00F018FC53EC182BF4
:1046C00000F00AFB53EC1B2B00F010FC53EC1C2BEE
:1046D00000F00CFC9DED0A1B53EC112B00F0FAFBD3
:1046E000BDEC0A8B05B041EC100B30BDFFE753EC7D
:1046F0001A2B51EC180B00F0EFFA53EC1C2B00F0C6
:104700008DF853EC192B00F0E7FA9DED0A1B53ECE2
:10471000112B00F083F8E3E75C0C000000000000C0
:10472000495555555555C5BF000000000000E03FF4
:1047300010B553EC102B51EC100B00F06FF841EC5E
:10474000100B10BD000000009FED050B10B553ECE1
:10475000102B51EC100B00F009F941EC100B10BDBF
:1047600000000000000000009FED050B10B553ECA9
:10477000102B51EC100B00F0AFFA41EC100B10BDF8
:10478000000000000000001082B0CDE9000121F01F
:10479000004001909DED000B02B051EC100B7047F2
:1047A00081F00041704780F00040704721F00041E7
:1047B000704720F00040704721F0004201F00043B4
:1047C000A2F16052B2F5801F28BFD2F17F6C0BD9E5
:1047D0005FEA001C43EAC20242EB507018BF704708
:1047E00028BF20F001007047B2F5801FBCBF1846FB
:1047F00070474FEA410C1CF5001F02D2084600F03A
:10480000E1BC70B500F012FB00000089FFF7F6BFB5
:104810004FF00040A0F580007047000010B591EA0D
:10482000030F48BF83F0004300F16883841A71EBE3
:10483000030C05D2121943EB0C03001B61EB0C01B6
:104840004FEA1154A4EB135CDFF81CE11EEA430F9E
:1048500018BF9EEA445F00F0748021EA045123EA05
:104860000E0343F48013DCF1200E32D322FA0CFE47
:1048700010EB0E0023FA0CFE41EB0E01CCF1200EE2
:1048800003FA0EFE10EB0E00CCF1200E51F10001E8
:10489000B1F5801F32D201EB045112FA0EF2BDE8DD
:1048A000104058BF7047401C38BF5FEA420218BF33
:1048B0007047002814BF20F0010041F100014FEAC9
:1048C000410313F5001F38BF7047A1F1C04100F04C
:1048D000FBBA012A43EB0302ACF1200CDCF11F0E02
:1048E00032BF4FF0000E23FA0CF310EB030041EB44
:1048F0000451B4EB115FD0D0A1EB045101F580114C
:10490000490801EB04515FEA30000ED350F100007A
:1049100038BF12FA0EFE08D1BDE81040C9E7401CAE
:1049200038BF5FEA4202CAD1C3E7BDE810404FEA90
:10493000410313F5001F38BF7047A1F1C04100F0DB
:10494000C3BA9EEA445F08D011EA5E0FBDE810408A
:1049500004BF01F0004100207047BDE8104070B571
:1049600000F064FA64FBBE3E0000E0FF2DE9C041A8
:1049700030B4DFF8A8C23CEA111418BF3CEA1314A3
:1049800000F0F0801CEA111481EA030544EAD574B2
:1049900018BF1CEA131500F0CB80A4EB050404F14A
:1049A0007F7404F500344FF0004545EAC12145EA23
:1049B000C32341EA505143EA52534FEAC0204FEA21
:1049C000C222994208BF904200F0A0804FEA1365CE
:1049D0000FF24816765D4FEA134506FB05F7C7F15F
:1049E000807706FB07F74FEAD737A7FB03687642C5
:1049F000A7FB06CEC8F5803838BFA8F1010807FB31
:104A000008E6A6FB028C4FF0000EE6FB03CED8F1C1
:104A100000086FEA0C0C5CF1000C6FEA0E0E4EF110
:104A2000004EA6FB0C584FF00007E6FB0E87A1FBDB
:104A300008C6A0FB07CE16EB0E064FF0000545F1A9
:104A40000005E1FB076515F1E04E7EBFA4F580345B
:104A50005FEA46066D4116F1800745F100054FEA11
:104A6000172747EA05674FEA15254FEA0666A6F1BC
:104A7000DE46B6F1805F20D9384605EBC47124F0DC
:104A8000010C01EB0C11BCF1FE6F02D8F0BCBDE8CB
:104A9000008124425CBF01F5801E9EEAC47F02D4DF
:104AA000F0BCBDE80081244200F13980A1F1C04191
:104AB000F0BCBDE8004100F007BA4FEAD02040EA60
:104AC00041504FEAD1214FEAD22242EA43524FEA03
:104AD000D323A7FB028607FB036605FB02661EEADB
:104AE0000E0F58BFA6EB0056B6EB00564FEA520E1B
:104AF0004EEAC37E18EB0E0E56EB530EBCD518EBE8
:104B000002085E417F1C55F10005B5E74FF48015A2
:104B10004FF000074FF000064FF00008ACE701F13E
:104B2000C04101F000414FF00000F0BCBDE8008141
:104B30000CEA131511EA0C1F00D00CE013EA0C1F4D
:104B400000F025804FF0000081EA030101F00041F0
:104B5000F0BCBDE80081F0BCBDE8004181EA030182
:104B600000F0B2B9F0BCBDE8004170B500F05EF9EC
:104B7000097EFC3E00F007B84FF0000081EA030117
:104B800001F00041704781EA030100F09DB9F0BCDB
:104B9000BDE8004122494FF000007047FFFDFBF9DE
:104BA000F7F5F4F2F0EEEDEBE9E8E6E4E3E1E0DE60
:104BB000DDDBDAD8D7D5D4D3D1D0CFCDCCCBCAC8D2
:104BC000C7C6C5C4C2C1C0BFBEBDBCBBBAB9B8B7F9
:104BD000B6B5B4B3B2B1B0AFAEADACABAAA9A8A8EC
:104BE000A7A6A5A4A3A3A2A1A09F9F9E9D9C9C9BBA
:104BF0009A99999897979695959493939291919065
:104C00008F8F8E8E8D8C8C8B8B8A898988888787F5
:104C10008685858484838382828181800000FF076A
:104C20000000F87F4FEA41034FEA5353A3F5806336
:104C3000D3F11E03C8BFD3F1210C0CDD4FF00042AD
:104C400042EAC12242EA505232FA03FC8CEAE17C89
:104C5000ACEBE1707047102BC4BF0020704703F528
:104C6000787CBCF1FF3F04D06FF0004282EA210063
:104C7000704770B500F0DAF8499224800020704740
:104C8000F2E710F0004248BF4042B0FA80F310FA59
:104C900003F10AD0C3F11D0303F5806302EB035255
:104CA0004FEA415002EBD12170474FF000007047AE
:104CB000B0FA80F310FA03F10AD0C3F11D0303F533
:104CC00080634FEA03524FEA415002EBD121704713
:104CD0004FF000007047000070B5DFF848C11CEAD3
:104CE000111E1EBF1CEA13159EEA0C0F95EA0C0F4D
:104CF00000F06F8081EA03044EEAD47EAE4421EADC
:104D00004C1123EA4C1341F4801143F48013AEF1AB
:104D10007F7EA1FB024CA0FB0365361955EB0C0509
:104D2000A1FB034C4CF10003A0FB021C16EB0C068C
:104D3000654153F10003094218BF46F0010613F420
:104D4000007F0BD14FEA03314FEA053041EA15519C
:104D500040EA165034036FF003020AE04FEAC32121
:104D60004FEAC52041EA555140EA5650F4026FF02F
:104D7000020202EB2E4201EB025585EACE710AD007
:104D80005FEA440C18BF24F0004450F1000041F1E8
:104D9000000120EAD47040F2FE7C624500D270BD72
:104DA000A84214BF4FF080444FF04044002E08BF8B
:104DB0000024BEF1806FA8BFA1F1C041BDE87040E2
:104DC00080F2828001F1C04101F000414FF000000B
:104DD00070470CEA13159EEA0C0F18BF95EA0C0FEA
:104DE00006D081EA030E4FF000000EF0004170BDC6
:104DF00000F01CF88900013E00F007B800F009B887
:104E00004FEA430C5FEA5C5C08D081EA030100F0E2
:104E10005BB84FEA410C5FEA5C5CF6D102494FF0A7
:104E2000000070470000FF070000F87F0EF1020E3F
:104E30002EF0030E5EF8046B364205D4012A43EBD4
:104E4000030515F5001F12D8012841EB010C1CF5D4
:104E5000001F0CD80ED14FEAD17C0CEB4C0C0CF19E
:104E6000020C15F5001F08BF4CEBD37C04E04FF09B
:104E7000080C01E04FEAD37C0CEB4C0526FA05F652
:104E800006F00706B6F1040C06D20EEB860CBDE860
:104E900070404CF0010C6047DFE80CF0090B020297
:104EA0004FF00041A1F500214FF0000070BD194600
:104EB0001046012851EB010418BFD4F5001484BF3B
:104EC000002001F0004170BD0808A0F500114FEA74
:104ED0003101704710B591EA030F81F000413FF5B1
:104EE000A5AC83F0004300F009B8000010B591EACA
:104EF000030F48BF83F000433FF598AC841A71EB71
:104F0000030C07D28CF0004C121943EB0C03001B6E
:104F100061EB0C014FEA1154A4EB135CDFF8A4E140
:104F20001EEA430F18BF9EEA445F00F0B48021EAF6
:104F3000045123EA6E035242C3EB6E0338BF5B1E7B
:104F4000DCF1200E25D322FA0CFE10EB0E0043FA02
:104F50000CFE41EB0E01CCF1200E03FA0EFE10EB1D
:104F60000E00CCF1200E51F1000129D401EB0451C7
:104F700012FA0EF2BDE8104058BF7047401C1CBF2B
:104F8000B2F1004F704700280CBF491C20F001000F
:104F9000704712EB020E43EB030218BF4FF0010EF5
:104FA0004EEA4202ACF1200CDCF11E0E56D943FA57
:104FB0000CFE10EB0E00CCF11E0E51F1FF31D5D5D9
:104FC0000EF1010E12FA0EFE404141EB010101EB20
:104FD000445C5FEA5C5C10D901EB045110EBDE70BD
:104FE00038BFBEF1004FBDE8104018BF7047002821
:104FF0000CBF491C20F00100704734D24FEAD42C7A
:1050000024F4006411F500111BD0B1FA81F20B3ABF
:10501000A41AA41ED2F12003914030FA03F31943DD
:10502000904001EBCC7101EB0451002CBDE8104025
:10503000A8BF704701F1C04101F000414FF00000EE
:105040007047B0FA80F310FA03F102D1BDE81040C6
:105050007047E41A173C4805C90AE2E701EB04511E
:10506000BDE81040704749104FEA300001EB045191
:10507000BDE8104002E04FF0000170474A0008BF51
:105080000042F8D0B2F5001F28BF704701F0004180
:105090004FF0000070479EEA445F07D011EA5E0FB0
:1050A000BDE8104004BF002100207047BDE810405B
:1050B00070B5FFF7BBFE00BF40DFF63E104683F041
:1050C000004170470000E0FF43004FEAD30C4FEA75
:1050D0003C0C43401FBF40070CF1605113F0FE4FE2
:1050E00070471CF0006F03D10CF0004100207047A6
:1050F0000CF0004343EA507040EACC0010B500F0D9
:105100000EF800BF000000924FEA0001FFF7DCBE7E
:105110004FF00041A1F500214FF0000070470EF163
:10512000020E2EF0030E5EF8044B244204D44FEA24
:105130004102B2F17F4F11D84FEA4003B3F17F4FE4
:105140000CD80ED14FEAD07C0CEB4C0C0CF1020CBD
:10515000B2F17F4F08BF4CEBD17C04E04FF0080C5C
:1051600001E04FEAD17C0CEB4C0324FA03F404F089
:105170000704B4F1040C06D20EEB840CBDE8104019
:105180004CF0010C6047DFE80CF0070802024FF01A
:105190000040A0F5800010BD0846420018BFD2F1C3
:1051A000807288BF00F0004010BDF1EE100A4FF68B
:1051B000FF71C0F2C03120EA010040F04070E1EE22
:1051C000100A7047FF2141EAD050C0057047000027
:1051D0004C5555555555A53F7751C1166CC156BF15
:1051E0009015CB19A001FA3EAD529C804F7E92BE25
:1051F000C4B1B4BD9EEE213ED43888BEE9FAA8BD44
:1052000000004054FB21F93F3163621A61B4D03D84
:105210000000601A61B4D03D7370032E8A19A33B5D
:105220000000002E8A19A33BC14920259A837B39AF
:1052300000000000000000006E83F9A22915444E12
:10524000D15727FCC0DD34F5999562DB4190433C92
:10525000AB6351FE61C5BBDE3A6E24B7E0D24D426E
:10526000EA2E49061C92D1091CEB1DFE3EA729B16E
:10527000F53582E88444BB2E26709CE9417E5FB4FC
:1052800039D69139F43953838B5F849C3B28F9BD1F
:10529000FF97F81F0F9805DE8B112FEF1F6D0A5A2D
:1052A000CF7E366DB709CB27663F464F2DEA5F9E0E
:1052B000C7BA27757BF1E5EBF739073DEA92528AC9
:1052C000B15FFB6B085D8D1F463003560000000088
:1052D000A6F810111111813FD561C119A0012ABF93
:1052E0007DFEB157E31DC73EEB9C2B8AE6E55ABE17
:1052F0007CD5CF5A3AD9E53D0000000000000000FF
:10530000010203040607080900000000010203046B
:105310000006101600061016385300080000002082
:1053200018000000EC01000850530008180000208D
:10533000800A00000C0200080024F4000000803EF7
:10534000000000000000000001000000100000004C
:040000050800018965
:00000001FF
