:020000040800F2
:10000000580B0020550200084D350008952E0008B9
:1000100049350008E1050008753A000800000000B5
:10002000000000000000000000000000553500083E
:10003000690200080000000051350008BD350008C5
:100040006F0200086F0200086F0200086F020008CC
:100050006F0200086F0200086F0200086F020008BC
:100060006F0200086F0200086F0200086F020008AC
:100070006F0200086F0200086F0200086F0200089C
:100080006F0200086F0200086F0200086F0200088C
:100090006F0200086F0200086F0200086F0200087C
:1000A0006F0200086F0200086F0200086F0200086C
:1000B0006F0200086F0200086F0200086F0200085C
:1000C0006F0200086F0200086F0200086F0200084C
:1000D0006F0200085D3A0008693A00086F020008E4
:1000E0006F0200086F0200086F0200086F0200082C
:1000F0008D3600086F0200086F0200086F020008CA
:100100006F0200086F0200086F0200086F0200080B
:100110006F0200086F020008813600086F020008B5
:100120006F0200086F0200086F0200086F020008EB
:100130006F0200086F0200086F0200086F020008DB
:100140006F0200086F0200086F0200086F020008CB
:100150006F0200086F0200086D0600086F020008B9
:100160006F0200086F0200086F0200086F020008AB
:100170006F0200086F0200086F0200080000000014
:100180006F0200086F02000800F002F800F052F859
:1001900014A696E8000CB244B344DA4501D100F04D
:1001A00049F8BAE80F000FA696E83000A5EB040561
:1001B00004EB0607AAEB0704A7F101074FEA1515A0
:1001C0004FEA3414A4F10104AC4201D300F032F838
:1001D00013F0010F18BFFB1A43F0010300F001F800
:1001E000DBE718477044000090440000103A24BF39
:1001F00078C878C1FAD8520724BF30C830C144BF8C
:1002000004680C6070470000704700000023002461
:1002100000250026103A28BF78C1FBD8520728BF16
:1002200030C148BF0B6070471FB504F0E5F91FBD32
:1002300010B510BD00F05AF91146FFF7F5FF03F0B5
:10024000CFFC00F078F903B4FFF7F2FF03BC00F035
:100250007BF900000948804709480047FEE7FEE7B0
:10026000FEE7FEE7FEE7FEE7FEE7FEE7FEE7FEE766
:1002700004480549054A064B704700006D360008E2
:100280008901000858050020580B0020580700205D
:100290005807002053EA020C00F069802DE9F04B6A
:1002A0004FF00006002B1FBFB3FA83F503FA05F4E5
:1002B00024FA05F65E4012BF1643B2FA82F502FA3E
:1002C00005F4C5F120051EBF22FA05FC44EA0C0422
:1002D000203556EA044C4FEA144418BF641C4FF012
:1002E00000084FF00009904271EB030C39D300294C
:1002F00019BFB1FA81F701FA07F6B0FA80F700FAF0
:1003000007F6C7F120071EBF20FA07FC46EA0C06D5
:100310002037B6FBF4FCA7EB0507103F07F01F0BD7
:10032000CBF120062CFA06F60CFA0BFB44BFB346C1
:100330000026202FA4BF5E464FF0000B5BEA060CA0
:1003400008BF4FF0010B19EB0B0948EB0608ABFB9C
:10035000027C06FB02CC0BFB03CCC01B71EB0C0137
:10036000C1E70B46024641464846BDE8F08B13B54F
:10037000084318BF4FF0FF300146AFF30080BDE8DF
:100380001C407047032A40F2308010F0030C00F04C
:10039000158011F8013BBCF1020F624498BF11F8BF
:1003A00001CB00F8013B38BF11F8013BA2F1040278
:1003B00098BF00F801CB38BF00F8013B11F00303F0
:1003C00000F05A80083AC0F0088051F8043B083A1F
:1003D00051F804CBA0E80810F5E7121D5CBF51F8F6
:1003E000043B40F8043BAFF30080D20724BF11F870
:1003F000013B11F801CB48BF11F8012B24BF00F8D5
:10040000013B00F801CB48BF00F8012B70474FF0CB
:10041000000200B5134694469646203922BFA0E854
:100420000C50A0E80C50B1F12001BFF4F7AF090760
:1004300028BFA0E80C5048BF0CC05DF804EB890051
:1004400028BF40F8042B08BF704748BF20F8022B94
:1004500011F0804F18BF00F8012B704770477047AC
:10046000704710B500F03AF8006810BD10B50446AA
:1004700000F034F8046010BD10B5203AC0F00B80D5
:10048000B1E81850A0E81850B1E81850A0E818508A
:10049000203ABFF4F5AF5FEA027C24BFB1E8185000
:1004A000A0E8185044BF18C918C0BDE810405FEA62
:1004B000827C24BF51F8043B40F8043B08BF7047DE
:1004C000D20728BF31F8023B48BF11F8012B28BFE3
:1004D00020F8023B48BF00F8012B704700487047E6
:1004E0002000002000487047200000207546FFF7DC
:1004F000F9FFAE4605006946534620F007008546E1
:1005000018B020B5FFF7B4FEBDE820404FF000065C
:100510004FF000074FF000084FF0000BAC46ACE87E
:10052000C009ACE8C009ACE8C009ACE8C00921F0DA
:1005300007018D46704710B50446AFF30080204692
:10054000BDE81040FFF77FBE01491820ABBEFEE7B3
:1005500026000200704700000146806B036C026CAD
:1005600013F0500F07D0D20648BF00F027B9806BB8
:10057000C26C0846104742F40071016401688A6841
:1005800012F0405F01D000F015B9027E002AFAD1C6
:10059000CA6A12F4700F02D08A685205F3D44A680E
:1005A00022F020024A60016C21F480710164016C28
:1005B000C90448BF00F0FEB8016C41F001010164BC
:1005C00000F0F8B8806B40210164416C41F00401F7
:1005D000416400F0F3B80000806B00F0EDB800005B
:1005E000FEE700002DE9F04381B040F2505940F29F
:1005F000B443C2F20009C2F2000399F800201B784C
:100600000C46D11A803101EB516303F08003591A73
:100610008039C9B2A14201D2002422E01519064650
:100620007F2D07D840F2B840C2F200001044314696
:10063000224612E06FF07F00871A40F2B848C2F2FB
:100640000008FDB208EB020031462A46FFF79AFE89
:10065000651B56FA87F140462A46FFF793FE89F854
:100660000050204601B0BDE8F083000040F2A41025
:10067000C2F2000000F0B8BA72B600BFFEE7000098
:10068000B0B581B00022009290F83C20012A02D13E
:10069000022001B0B0BDD1F800E00122BEF10A0F86
:1006A00080F83C200ED31FFA8EF25200036812FA33
:1006B0008EF21E3A4FF0070C53F80C5F0CFA02F45E
:1006C000A54308E003680EEB4E02072553F8104FD0
:1006D000954024EA05051D608D6805FA02F21D6843
:1006E0002A431A604A68062A0ED802EB82014A1F82
:1006F00001681F2351F8345F934025EA03030B6020
:100700001FFA8EF3934014E0016802EB82030C2A77
:100710001FFA8EF203D851F8304F233B02E051F814
:100720002C4F413B1F259D4024EA050502FA03F3A7
:100730000D600A6842F2043C1A430A60C4F2010CDC
:100740000168BEF1120FACF5417308BF994205D1A3
:10075000DCF8002042F48002CCF800202EF00102E8
:10076000102A08BF994205D0002180F83C100020D3
:1007700001B0B0BDDCF80010BEF1100F41F4000173
:10078000CCF80010F0D140F20001C2F2000109687B
:100790004DF68362C4F21B32A1FB0212910C01EBF5
:1007A00081014900009100990029DDD000990139AB
:1007B000F8E7000070470000704700007047000035
:1007C000002804BF0120704710B5016C39B90446F8
:1007D00000F0A0F820460021616484F83C10016C10
:1007E000C9063AD4016C41F202129143023142F23D
:1007F00004320164C4F20102116821F44031116035
:10080000136890E812102343D0F810E013604A6890
:10081000012422F480724A604A68C0F6007442EAF9
:100820000E224A604A6822F040724A604A6842EAF0
:100830000C024A608A6822F400628A60C2688B688F
:100840001A438A60826A8B68A24223F070638B60CD
:100850008B6804D123F040520AE0012152E01A4390
:100860008A608A6822F040528A60C26A8B681A43A2
:100870008A608A6822F002028A608A68037E90F8A1
:10088000204042EA43028A604A6884B142F400622E
:100890004A604A684EF2000322F460424A60426AAB
:1008A000CFF6FF734C6803EB4232224301E022F49F
:1008B00000624A60CA6A40F2000C22F47002CA6206
:1008C000C3694269CFF6F07CCC6A0CEB0353234337
:1008D000CB628B6823F400738B6090F830308C68A7
:1008E00044EA43238B608B6823F480638B608B68BE
:1008F00043EA82228A6000214164026C012363F38F
:1009000001020264002280F83C20BDE81040084645
:100910007047000070B586B0044642F200002168BE
:10092000C4F20100002681420596CDE903660296D5
:10093000019601D006B070BD43F630010096C4F2B6
:1009400002014A6900F5644042F480724A614A69D2
:1009500002F480720092009A00960A6842F0020245
:100960000A60096801F002010091009901210191DA
:100970000321CDE9021601A900F0EAFA40F244157C
:1009800046F21040C2F20005C4F202004FF480614A
:10099000C5E9000605F110004FF400624FF4005362
:1009A0004FF4807C80E80E104FF48030C5E90806D3
:1009B0002846C5E9026600F0DBF9002818BFFFF7FA
:1009C0005BFEA563AC6306B070BD0000B0B582B03D
:1009D0000023019390F83C30012B02D1022002B099
:1009E000B0BD94460A460123016880F83C308B680C
:1009F000DB0717D18B684DF6836443F001038B60EE
:100A000040F20003C2F200031B68C4F21B34A3FBD4
:100A10000434A30C03EB43030193019B13B1019B2B
:100A2000013BF9E78B68DB0503D58B6823F4807302
:100A30008B608C68036CE4070BD143F010010164F8
:100A400000F14401002001220B681A430A6002B041
:100A5000B0BD40F20174A34303F5807303644B6897
:100A60005B0504D5036C012464F30D330364046C4B
:100A70000023E4044FF0000444BF446C24F0060457
:100A8000446480F83C30836B40F2595E40F2D954A4
:100A9000C0F6000EC0F60004C3E90FE440F2C554EE
:100AA000C0F60004DC646FF022040C604C6842F273
:100AB000043544F080644C608C68C4F2010544F451
:100AC00080748C604C3104461846634600F0F0F99F
:100AD0002A682168D20605D0A5F54172914225D039
:100AE00002B0B0BD42F20002C4F20102914215D040
:100AF00042F20022C4F2010291420CD042F20012F2
:100B0000C4F201029142EBD12A68D20606D0A5F5C3
:100B100082729142E4D12A68D206E1D451F8082FBA
:100B200012F0405FDCD14FF080428DE74FF6045267
:100B3000CFF6FF72AA5812F0405FD1D108314FF0C2
:100B4000804281E770B5866D044600F0D1FA94F8D2
:100B50003510022925D105462068216C026822F053
:100B600016020260426922F08002426109B9A16C5A
:100B700019B1016821F008010160016821F001014B
:100B8000016000BF20680068C0070ED000F0B0FA16
:100B9000401B0628F6D320206065032084F835002A
:100BA0000CE080206065012008E0E06D3F2101FA43
:100BB00000F0B060012084F835000020002184F8A6
:100BC000341070BD90F83510022909D1052180F844
:100BD00035100068016821F00101016000207047B4
:100BE0008021416501207047F0B581B0002100915E
:100BF00040F20001C2F200010B68D0E9166148F230
:100C0000B51537680822C1F64E358A403A42A3FB33
:100C100005350CD003681C68640708D51C6824F0EF
:100C200004041C60B260426D42F001024265012280
:100C30008A403A4208D003685B691B0604D5B2605B
:100C4000426D42F00202426504228A403A4208D0D4
:100C500003681B689B0704D5B260426D42F0040232
:100C6000426510228A403A4216D001680B681B0781
:100C700012D5B2600B680A685B0306D4D20506D4AD
:100C80000A6822F008020A6001E011033FD4016CF7
:100C900011B1044688472046C26D202101FA02F3B3
:100CA0003B4241D001680F68FF063DD5B36090F824
:100CB00035700B68052F1AD123F016030B604B69B2
:100CC00023F080034B61036C0BB9836C1BB10B6881
:100CD00023F008030B603F219140B160012180F8AF
:100CE0003510016D002280F83420D9BB3EE00A683F
:100CF0005B0310D4D20512D40A6822F010020A60F5
:100D0000012180F83510002180F8341007E0816C53
:100D10000029BED1C0E7110301D4416C00E0C16BD2
:100D200011B1044688472046416DF9B1416DC907AC
:100D300016D0052180F835100168AA0A0B6823F047
:100D400001030B60009B01339342009302D80B68B0
:100D5000DB07F7D1012180F83510002180F834102D
:100D6000C16C19B101B0BDE8F040084701B0F0BD59
:100D70002DE9F041044600F0BBF9C4B1054602205C
:100D800084F835000020216884F83400086820F0D9
:100D90000100086020680168C9070BD000F0A8F9BD
:100DA000401B0528F6D90321202203207AE00120E8
:100DB000BDE8F081016848F23F02CFF21002D4E9A9
:100DC000013501EA020ED4E9032143EA0E032B4365
:100DD000D4E9056C1A43D4E907781143314341EA59
:100DE0000702616A42EA0802042942EA0C0303D1BD
:100DF000D4E90B273A43134303604269042922F0E4
:100E0000070241EA02012DD1D4E90A5341EA050162
:100E100043B3BCF5005F08D0BCF1000F12D1022D26
:100E200016D0012D07D09DB119E0032D17D8DFE8AA
:100E300005F00B0F0B02A3F1C072B2FA82F2520955
:100E40004AB90FE0032D02D2012222B90AE006D1ED
:100E5000C3F3006232B101214022012022E00022CE
:100E6000002AF8D100F0F8024AF6AB23103ACAF68D
:100E7000AA23A2FB033744F24C6341613909C0F64F
:100E80000003595C40F2FF3398435F2A4FF03F0262
:100E900088BF0430C4E9160102FA01F18160002222
:100EA00001210020626584F83510BDE8F081000062
:100EB00090F834C0BCF1010F04BF0220704770B538
:100EC0004FF0010C80F834C0D0F858E090F835C0ED
:100ED000BCF1010F37D14FF0020C80F835C04FF054
:100EE000000CC0F854C0D0F800C08468056CC06D18
:100EF000DCF80060402C26F48026CCF80060CCF8AA
:100F000004300B4604BF13460A463F2101FA00F0A5
:100F1000CCF80830CCF80C20CEF80800DCF8000043
:100F200040F01600CCF800002DB1DCF8000040F0D5
:100F30000800CCF80000DCF8000040F00100CCF81C
:100F40000000002070BD002180F83410022070BD28
:100F50002DE9F04F83B000F1200200F13E4741F649
:100F60000045009207F1FF77C4F2020508224FEA1C
:100F7000B726A84208BF0722072E38BF4FEAB7227C
:100F800000274FF0000A4FF0000801920AE000BF6E
:100F900008F101080AF1020AB8F1100F07F104077D
:100FA00000F09D800D68012202FA08FC15EA0C0988
:100FB000EED04D68032205F0030BABF10106012EC4
:100FC00002FA0AFE10D88668CC6826EA0E0604FAF1
:100FD0000AF4344384604468C5F3001524EA0C061F
:100FE00005FA08F52E434660BBF1030F1BD0C66817
:100FF0008D6826EA0E0605FA0AF52E43BBF1020FAC
:10100000C66010D16FF00302009D02EA580655F841
:1010100006C007F01C040F220B69A2402CEA020252
:10102000A3401A43AA5102684B6822EA0E0203F059
:10103000030606FA0AF6324313F4403F0260A7D0D3
:10104000002243F644030292C4F202031A6843F6F4
:10105000004442F480421A601A68C4F2010402F4A7
:1010600080420292029A28F003024FF6084C224472
:10107000CFF6FF7C52F80C3007F00C060F25B54078
:10108000AB43019D05FA06F6334342F80C30A268E3
:101090004B6842EA090643F60C4CDD0258BF22EACF
:1010A0000906A660C4F2010CDCF800209D0242EAA9
:1010B000090658BF22EA0906CCF8006062689D0361
:1010C00042EA090658BF22EA090666602268DB0385
:1010D00042EA090658BF22EA0906266058E703B02B
:1010E000BDE8F08F002A08BF090481617047000045
:1010F00040F24C50C2F200000068704740F2140009
:1011000040F24C51C2F20000C2F2000100780A68BD
:10111000104408607047000080B543F60040C4F2F8
:101120000200016841F400710160016841F48061CE
:101130000160016841F480710160032000F08CF8C7
:10114000032000F005F800F02BF8002080BD00001F
:10115000B0B540F21402C2F2000240F2000112786F
:10116000C2F200014FF47A730968B3FBF2F204464D
:10117000B1FBF2F1084600F029FB0F2C4FF00105FE
:101180000CD858B94FF0FF3021460022002500F05E
:1011900037F840F21800C2F2000004602846B0BDE3
:1011A00082B0002043F640010190C4F202014A6877
:1011B00042F480424A604A6802F480420192019AF5
:1011C0000090086840F080500860086800F0805087
:1011D00000900098052002B000F03EB8002848BFFB
:1011E000704700F01F01012202FA01F11C2202EAFD
:1011F000D0004EF20012CEF2000281507047000083
:1012000010B54EF60C5CCEF2000CDCF80030C3F3E7
:10121000022E8EF00704042C28BF0424BEF1030321
:101220004FF0FF3E0EFA04F438BF0023A14399406B
:101230000EFA03F39A43114300F1604200F00F03EA
:10124000090102F56442043B6344002848BF03F1EE
:101250000C02117010BD00004EF60C51CEF20001D0
:101260000A684FF6FF031A4060F30A2242F08060DA
:1012700040F0FD7008607047002804BF01207047EF
:101280002DE9F04143F60808C4F202080446D8F8F4
:10129000F8030D4600F00700814207D988F8F8539B
:1012A000D8F8F80300F00700A84276D1206881073B
:1012B00017D5410705D5D8F8001041F4E051C8F81A
:1012C0000010010705D5D8F8001041F46041C8F8B6
:1012D0000010D8F80010A26821F0F0011143C8F8FE
:1012E0000010C0073FD1D8F8F80300F0070085428E
:1012F00007D288F8F853D8F8F80300F00700A8429E
:101300004BD12068410707D5D8F80010E26821F4D6
:10131000E0511143C8F80010000708D5D8F80000C4
:10132000216920F4604040EAC100C8F8000000F0E4
:101330007BF8D8F8001044F23462C1F30311C0F610
:101340000002515C40F2000220FA01F140F2180064
:10135000C2F200000068C2F200021160FFF7F8FE5E
:101360000020BDE8F0816068811E022907D258F88C
:10137000081C89015CBF0120BDE8F08110E0012854
:1013800007D158F8081C89035CBF0120BDE8F08133
:1013900006E058F8081C890702D40120BDE8F08156
:1013A000D8F8001021F003010843C8F80000FFF747
:1013B0009FFE064641F28837D8F80000616800F0C9
:1013C0000C00B0EB810F8ED0FFF792FE801BB8426D
:1013D000F2D90320BDE8F08140F2000043F6080195
:1013E000C2F20000C4F202010068096844F24462DB
:1013F000C1F38221C0F60002515CC8407047000072
:1014000040F2000043F60801C2F20000C4F20201FB
:101410000068096844F24462C1F34231C0F6000238
:10142000515CC8407047000010B543F60404C4F294
:101430000204606800F00C00082842F20040C0F28C
:10144000F40018BF10BD21682268236801F03F0234
:10145000C3F38811A1FB00010023FEF71BFF2168E5
:101460000222C1F3014102EB4101B0FBF1F010BDDA
:10147000002804BF012070472DE9F04182B00446E6
:10148000007843F60006C007C4F2020649D0B068EF
:1014900000F00C00042809D13068800341D5606851
:1014A00000283ED1012002B0BDE8F081B06800F014
:1014B0000C00082802D170684002EDD465683068DD
:1014C000B5F5A02F05D0B5F5803F09D140F48030A7
:1014D0000CE040F480203060306840F4803005E05B
:1014E00020F480303060306820F480203060FFF7D6
:1014F000FFFD002D054611D03068800311D4FFF7A1
:10150000F7FD401B6428F7D928E100BFFFF7F0FD85
:10151000401B64284FF0030000F2E0803068800335
:10152000F4D4207880071BD5B06810F00C0F09D0D8
:10153000B06800F00C00082840F085807068400218
:1015400000F181803068800703D5E068012840F011
:101550009A803068216920F0F80040EAC1003060CC
:101560002078000734D42078400746D4A5695DB3BD
:10157000B06800F00C00082840F09C80012D00F0BD
:1015800082807068E16900F480028A427BD1216A1E
:1015900000F03F028A4276D147F6C071626A01408C
:1015A000B1EB821F6FD1A16A4FF6FF73C903994354
:1015B00000F44032A1F580318A4264D1E16A00F042
:1015C0007060B0EB016F5ED1002002B0BDE8F08129
:1015D000606900285BD00020C4F247200121C0F8D8
:1015E000801EFFF785FD0546706F8007BBD4FFF7AF
:1015F0007FFD401B0228F7D9B0E0306C5FEAC008DD
:101600000AD400200190306C40F080503064306C7F
:1016100000F080500190019847F20007C4F20007E3
:101620003868C00526D4386840F480703860FFF709
:101630005FFD05463868C0051CD4FFF759FD401B07
:101640000228F7D98AE0E068002840F20000C4F2DE
:10165000472053D001210160FFF74AFD054600BF36
:10166000306880073FF575AFFFF742FD401B022849
:10167000F6D973E0A568306F052D51D0012D56D1F4
:1016800040F0010059E0012002B0BDE8F0810020E7
:10169000C4F247200021C0F8801EFFF729FD05464F
:1016A000706F80077FF55FAFFFF722FD401B0228B8
:1016B000F6D953E00027C4F2472700203866FFF729
:1016C00017FD022D05460DD1306880015DD5FFF76D
:1016D0000FFD401B02284FF00300F5D902B0BDE812
:1016E000F08100BF306880017FF56EAFFFF700FD2D
:1016F000401B02284FF00300F4D9EFE700210160FE
:10170000FFF7F6FC054600BF306880077FF528AF7D
:10171000FFF7EEFC401B02284FF00300F4D9DDE791
:1017200040F004003067306F40F0010005E020F029
:1017300001003067306F20F004003067FFF7D8FCFD
:10174000002D054641F2883713D000BF306F800767
:1017500012D4FFF7CDFC401BB842F7D9032002B0EA
:10176000BDE8F081FFF7C4FC401BB8424FF0030016
:10177000B4D8306F8007F5D4B8F1000F3FF5F6AE5E
:10178000306C20F080503064F0E604F11C052FCD61
:10179000084340EA8210D9034FF6FF729143A1F546
:1017A000803140EA05600843706001203866FFF729
:1017B0009FFC0446306880013FF506AFFFF798FCB8
:1017C000001B02284FF00300F4D987E7411E0020D8
:1017D000B0EB116F1CBF012070474EF21002CEF229
:1017E000000251604EF62351CEF20001F0230B703F
:1017F000072190601160704770470000704700003B
:1018000090F83C20012A04BF02207047B0B501F1D6
:1018100008053CCDD1E900CE23F47C5322F470526C
:101820001A432EF4F0431A432CF4E0431A4324F4F1
:10183000C0431A432A43C96922F480420368114312
:101840005964002180F83C100020B0BD90F83C2085
:10185000012A4FF0020255D010B5012380F83C3028
:1018600080F83D200268D2F804E0D2F808C00C6885
:101870002EF07003234341F2FF74C4F20004A2422D
:1018800053600DDC40F2FF73C4F200039A4215DC92
:10189000B2F1804F29D040F20043C4F2000322E0AD
:1018A00040F2FF33C4F201039A4212DC41F6000316
:1018B000C4F200039A4218D0002312E040F600035D
:1018C000C4F200039A4210D040F60043C4F2000371
:1018D00009E044F20003C4F201039A4205D040F249
:1018E0000043C4F201039A4204D149682CF08003FA
:1018F000194391600121002280F83D1080F83C20BE
:10190000BDE8104010467047002804BF0120704712
:1019100010B5044690F83D0028B9002084F83C003A
:10192000204600F01FF8022084F83D002068211DA9
:1019300001F0B2FE012084F8460084F83E0084F8ED
:101940003F0084F8400084F8410084F8420084F8A5
:10195000430084F8440084F8450084F83D000020EA
:1019600010BD000080B582B0006840F2FF31C4F2C3
:101970000101884218DC41F20001C4F200018842F2
:101980002FD00021C4F20101884228D1002001900B
:1019900043F64400C4F20200016841F00101016015
:1019A000006800F0010018E040F20041C4F20101BB
:1019B00088422FD044F20001C4F2010188420ED1C6
:1019C0000020019043F64400C4F20200016841F493
:1019D00080310160006800F480300190019802B00D
:1019E00080BD0020019043F64400C4F2020050F88C
:1019F000041C002241F0100140F8041C50F8040CB3
:101A0000002100F01000019001983620FFF7F8FB4C
:101A1000362014E00020019043F64400C4F2020096
:101A20000168012241F0020101600068012100F01B
:101A30000200019001982C20FFF7E2FB2C2002B05D
:101A4000BDE88040FFF7CABB90F83D1001291CBFDC
:101A500001207047022180F83D10006841F2FF71BB
:101A6000C4F2000188420DDC40F2FF71C4F20001B3
:101A7000884215DCB0F1804F29D040F20041C4F219
:101A8000000122E040F2FF31C4F20101884212DC81
:101A900041F60001C4F20001884218D0002112E092
:101AA00040F60001C4F20001884210D040F6004127
:101AB000C4F2000109E044F20001C4F201018842CD
:101AC00005D040F20041C4F20101884206D181688C
:101AD00001F00701062904BF00207047016841F0AA
:101AE000010101600020704790F83D1001291CBFE2
:101AF00001207047022180F83D10006841F2FF721A
:101B0000C168C4F20002904241F00101C1600DDCE5
:101B100040F2FF71C4F20001884215DCB0F1804F41
:101B200029D040F20041C4F2000122E040F2FF312E
:101B3000C4F20101884212DC41F60001C4F2000146
:101B4000884218D0002112E040F60001C4F20001E2
:101B5000884210D040F60041C4F2000109E044F28E
:101B60000001C4F20101884205D040F20041C4F2F4
:101B70000101884206D1816801F00701062904BFEE
:101B800000207047016841F00101016000207047AA
:101B900090F83C20012A4FF002026ED080B501235C
:101BA00080F83C3080F83D20D0F800C04FF67772C6
:101BB000DCF8083023EA0202CCF808200B684F2B2F
:101BC00028DC1F2B44DD202B45D0302B43D0402B6D
:101BD00040F0AC80D1F804E0C968DCF82030DCF8D3
:101BE000202022F00102CCF82020DCF8182022F07E
:101BF000F00242EA011123F00A0242EA0E02CCF896
:101C00001810CCF82020DCF8081041F0470121F032
:101C1000300127E06F2B32DDB3F5005F73D0B3F5F1
:101C2000805F21D0702B40F08180D1E901E3C96849
:101C3000DCF8082043EA0E0322F47F4243EA012144
:101C40001143CCF80810DCF8081041F0770109E0E6
:101C50000BB1102B6AD1DCF8081021F07001194388
:101C600041F00701CCF808100022012180F83D1056
:101C7000002180F83C10BDE8804010467047502B92
:101C800021D0602B52D1D1F804E0C968DCF82030B3
:101C9000DCF8202022F01002CCF82020DCF81820FC
:101CA00022F4704242EA013123F0A00242EA0E120D
:101CB000CCF81810CCF82020DCF8081041F06701AF
:101CC00021F01001CEE7D1F804E0C968DCF820303B
:101CD000DCF8202022F00102CCF82020DCF81820CB
:101CE00022F0F00242EA011123F00A0242EA0E0257
:101CF000CCF81810CCF82020DCF8081041F057017F
:101D000021F02001AEE7D1E901E3C968DCF8082041
:101D100043EA0E0322F47F4243EA01211143CCF847
:101D20000810DCF8081041F480419BE701229CE791
:101D3000002804BF012070472DE9F047044690F8C1
:101D40003D000D4628B9002084F83C00204600F0F4
:101D500049F8022084F83D00206844F207028168B7
:101D600091438160211D01F097FC20684FF6FF78B8
:101D700081688269D0F820C0D5E9003ED5E9026AC1
:101D800043EA0109AB6922EA080246EA03234FF657
:101D9000FC46B343D5E9076742EA0A0229691A43B8
:101DA00042EA062242EA01112CF0AA026B6942EAD9
:101DB0000E0241EA073142EA0312C0F8089081613D
:101DC0000262012084F8460084F83E0084F83F0057
:101DD00084F8420084F8430084F83D000020BDE808
:101DE000F0870000F0B587B0006840F60042C4F20A
:101DF000000200219042CDE90511CDE903110291C5
:101E00006BD040F60001C4F2000188423FD0B0F12F
:101E1000804F40F08780002543F630000195C4F2E2
:101E200002000169002441F0010101610169C4F26D
:101E3000020401F001010191019901950168022656
:101E400041F0010101600168012701F001010191E8
:101E500001990195016841F002010160006802A941
:101E600000F00200019001984FF4004002902046DB
:101E7000CDE9036505950697FFF76AF80820CDE9D7
:101E80000206CDE90455069704F5806047E000207E
:101E900043F630010190C4F202010A6942F00402E3
:101EA0000A610A6902F004020192019A01900A682B
:101EB00042F002020A60096801F0020101910199F1
:101EC000C02102910221CDE90310CDE905010020D6
:101ED000C4F2020000F5806021E043F63000019179
:101EE000C4F20200026942F008020261026902F0D3
:101EF00008020192019A0191026842F00102026017
:101F0000006800F001000190019803200290022077
:101F1000CDE90301CDE905100020C4F2020002A9B9
:101F2000FFF716F807B0F0BD80B590F83E2090F8A6
:101F30003F3090F842E090F843C0042909D099B9A5
:101F4000012A4FF0010208BFBEF1010F22D0104656
:101F500080BD012B4FF0010208BFBCF1010FF6D18B
:101F6000022280F83F2012E0012A4FF0010208BF50
:101F7000012BECD1BEF1010FE9D1BCF1010FE6D18B
:101F8000022280F83E2080F83F2080F8422080F82E
:101F9000432004E0022280F83E2080F842200268BC
:101FA0000429136A04D031B923F0010101230DE0A3
:101FB00023F0100109E023F001011162116A41F0E0
:101FC00001011162116A21F0100110231162116ADE
:101FD0001943116200680022016841F001010160AB
:101FE000104680BD7047000070B504460068C568A3
:101FF0000669B10716D515F0020113D06FF0020182
:102000000161012121778069800703D02046FFF715
:10201000E9FF05E0204600F0D5F8204600F010FA70
:1020200000202077700718D515F0040015D020681F
:102030006FF00401016102212177806910F4407F73
:1020400003D02046FFF7CEFF05E0204600F0BAF8A7
:10205000204600F0F5F900202077300717D515F05D
:10206000080014D020686FF0080101610421217775
:10207000C069800703D02046FFF7B4FF05E0204683
:1020800000F0A0F8204600F0DBF900202077F006F1
:1020900018D515F0100015D020686FF010010161FF
:1020A00008212177C06910F4407F03D02046FFF754
:1020B00099FF05E0204600F085F8204600F0C0F9C1
:1020C00000202077F00718BF15F0010002D130067C
:1020D00009D412E020686FF001010161204600F090
:1020E0003FFA300609D515F0800006D020686FF061
:1020F000800101612046FFF77FFB700609D515F0CE
:10210000400006D020686FF040010161204600F0D9
:10211000B9FBB00658BF70BD15F0200008D021688B
:102120006FF0200220460A61BDE87040FFF766BBF1
:1021300070BD000080B586B0006844F20002C4F2B1
:10214000010200219042CDE90411CDE90211019173
:1021500017D00021C4F20101884230D10020009044
:1021600043F63000C4F20200016841F01001016042
:1021700000684FF4D44100F0100000900098012056
:102180000FE043F630000091C4F20200016841F014
:10219000100101600068602100F0100000900098BC
:1021A00003200191022102910021059041F20000DB
:1021B000CDE90311C4F2020001A9FEF7C9FE06B081
:1021C00080BD00007047000090F83C30012B04BF38
:1021D000022070474FEAB2020123032A80F83C3004
:1021E00000F2F8802DE9F043DFE802F002AF3D7D18
:1021F000036840F200461C6A1A6A24F0020422F0C6
:1022000001021A621A46D3F804C052F818EF8F6818
:1022100043F48065C4F20106B54244EA070405D1DF
:10222000CF6824F00C0427F004073C430F68B54244
:1022300006D1D1E905582CF440762E4346EA080C25
:102240002EF073063743C3F804C09F614F680969D5
:102250005F631C629F6947F008079F619F6927F0D1
:1022600004079F61B0E0036840F200481C6A1A6AE4
:1022700024F4007422F480721A621A46D3F804C05F
:1022800052F81CEF8F6843F48065C4F2010845459D
:1022900044EA072408D1CF6840F2FF463F0224F405
:1022A000406427EA06063443D1F80090454506D13C
:1022B000D1E905562CF440572E4347EA061C2EF070
:1022C000730747EA0907C3F804C0DF614F6809696B
:1022D000DF631C62DF6947F00807DF61DF6927F011
:1022E0000407DF6170E0036840F20045D3F820C0C6
:1022F0001A6A43F4806722F480521A621A465C68B4
:1023000052F81C8FD1F800E08E68C4F20105AF428C
:1023100004D14D6924F4804444EA85142CF4005718
:1023200047EA063728F4E64646EA0E265C60DE6198
:102330004E6809691E641F62DF6947F40067DF6148
:10234000DF6927F48067DF613DE0036840F2004801
:102350001C6A1A6A24F0200422F010021A621A463B
:10236000D3F804C052F818EF8F6843F48065C4F2C4
:102370000108454544EA071407D1CF686FF04006CD
:1023800024F0C00406EA07163443D1F8009045450E
:1023900006D1D1E905562CF440672E4347EA860C56
:1023A0002EF4E64747EA0927C3F804C09F614F6847
:1023B00009699F631C629F6947F400679F619F6979
:1023C00027F480679F610902136819430023116095
:1023D000BDE8F043002180F83C101846704700002B
:1023E000002804BF0120704710B5044690F83D0056
:1023F00028B9002084F83C00204600F01FF8022095
:1024000084F83D002068211D01F046F9012084F880
:10241000460084F83E0084F83F0084F8400084F8C9
:10242000410084F8420084F8430084F8440084F8B2
:10243000450084F83D00002010BD000070470000FA
:10244000704700004122082908BF4022042908BF24
:102450003F22002908BF3E22825C012A1CBF0120C6
:102460007047022241B1082909D0042914BF80F81D
:10247000412080F83F2004E080F83E2001E080F811
:102480004020006801F01F010122036A02FA01F1F5
:1024900023EA01020262026A0A4341F2FF71C4F2B6
:1024A0000001884202620BDC40F2FF71C4F20001BD
:1024B000884213DCB0F1804F45D040F2004115E076
:1024C00040F2FF32C4F20102904214DC41F60003F4
:1024D000C4F20003984236D0002314E040F6000115
:1024E000C4F2000188422ED040F60041C4F200013F
:1024F000884228D02EE044F20003C4F2010398423F
:1025000021D040F20043C4F20103984222D1436C2F
:10251000884243F400434364C6DD904207DC41F641
:102520000001C4F2000188420DD0002107E044F20E
:102530000001C4F20101884205D040F20041C4F21A
:102540000101884206D1816801F00701062904BF14
:1025500000207047016841F00101016000207047D0
:1025600070B540F26C31C2F2000188426ED040F288
:102570002431C2F20001884218BF70BD40F294209D
:10258000C2F20000026840F2DC24506A40F2F4011A
:10259000C2F20004C2F20001246803B2088040F2D3
:1025A0004C20D4F824E040F2A40CC2F20000C2F2A5
:1025B000000C0068ACF800E0D0F824C040F2CC0178
:1025C000C2F20001A1F800C00021516240F2D00225
:1025D00061624162C2F2000200EE103A92ED001A0E
:1025E000B8EEC00A92ED022A92ED044A92ED055A25
:1025F00031EE407A37EE420A27EE051A24EE000A41
:1026000092ED033A30EE010A32EE021A92ED066ABA
:1026100037EE411A31EE031A26EE011A92ED083A0E
:1026200031EE000A33EE001A9FED940A82ED017A32
:10263000B4EE401AF1EE10FA82ED081A82ED032A88
:1026400082ED027A0DDD82ED080A13E0322001F0FE
:102650002BFC40F24A50C2F20000BDE8704001F08D
:1026600091BB9FED870AB4EE401AF1EE10FAB8BFA5
:1026700082ED080A92ED080A40F280020FFA8EF00D
:10268000C2F2000201EE100A92ED002AB8EEC11A61
:1026900092ED023A92ED045A92ED056A72EE410A09
:1026A00030EEC31A20EE862A25EE011A92ED034A77
:1026B00031EE021A33EE032A92ED067A30EEC22A88
:1026C00032EE042A27EE022A92ED084A32EE011A6F
:1026D00034EE012A9FED691ABDEEC00AB4EE412A1C
:1026E000F1EE10FAC2ED010A82ED082A82ED033AFA
:1026F000C2ED020A02DD82ED081A08E09FED601AC1
:10270000B4EE412AF1EE10FAB8BF82ED081A10EECD
:1027100010EA92ED080A0FFA8CF0BDEEC00A10EE36
:10272000103A00EE100A40F2A800C2F2000090ED4C
:10273000001AB8EEC00A90ED022A90ED044A90ED1E
:10274000055A31EE407A37EE420A27EE051A24EE9A
:10275000000A90ED033A30EE010A32EE021A90EDD3
:10276000066A37EE411A31EE031A26EE011A90ED91
:10277000083A31EE000A33EE001A9FED400A80ED70
:10278000017AB4EE401AF1EE10FA80ED081A80EDED
:10279000032A80ED027A02DD80ED080A08E09FED51
:1027A000380AB4EE401AF1EE10FAB8BF80ED080A0C
:1027B0004FF61841CFF6FF710C4690ED080A13F55D
:1027C0007A7FC8BF1C464FF47A75B4F57A7FA8BFEC
:1027D0002C46604240F2042C00EAE370C2F2000C86
:1027E000002BC8BF0020DCF800604FF00003D8BF0A
:1027F0001C46F0631EF57A7F0846BDEEC00AC8BFCE
:102800007046B0F57A7F10EE102AA8BF2846BEF1B8
:10281000010F346407DB40F2B436C2F200063668BA
:10282000B36370630BE040F2B434C2F20004246876
:10283000BEF1FF3F6363CCBF00204042A06312F5AE
:102840007A7FC8BF1146B1F57A7FA8BF4FF47A717D
:10285000012A05DBDCF8000000224263816370BDC1
:10286000DCF80000B2F1FF3F03DD0021416381632A
:1028700070BD002249428263416370BD00007A440A
:1028800000007AC47047000090F84230202B1CBF33
:102890000220704700294FF0010318BF002A01D120
:1028A00018467047036300234363816222218285B7
:1028B000C285436480F84210016921B10168CA6889
:1028C00042F48072CA6001684A6942F001024A61BA
:1028D000CA6842F02002CA60026B012A1CBF0120B4
:1028E000704781B0002200920A6800924968009106
:1028F000009900BF016851E8031F026841F0100110
:1029000042E80313002BF5D1002301B018467047AD
:10291000B0B540F2FC34C2F20004A04206D040F24E
:102920004444C2F20004A04218BFB0BD40F2B84512
:10293000C2F20005C9B22846FDF754FE20462946DA
:102940008022BDE8B040FFF79FBF00007047000045
:10295000B0B582B001680A68CC684B6902F02F05F7
:10296000202D04F0200505D125B102B0BDE8B0400E
:1029700000F0A4BF5FEA027C1EBF03F0010E04F466
:10298000907313EB0E0340D1036BD50618D5012BC2
:1029900016D114F0100313D0002201920A6801929C
:1029A0004A680192019A4969490647D4818DC28DCE
:1029B000C38D002B18BF914240F01A8102B0B0BD08
:1029C00013062AD514F0800327D090F84120212A3D
:1029D000F4D18268B2F5805F03D10269002A00F069
:1029E0003A81026A531C036212784A60C28C013A2F
:1029F0001304C284E2D1C86820F08000C860C868AF
:102A000040F04000C86002B0B0BDD10718BF14F458
:102A1000807167D151076BD471E05206CED514F0A6
:102A20004002CBD0CA6822F04002CA60202180F860
:102A3000411002B0BDE8B04000F028BAC26B116886
:102A400049688BB2002B42D0858DAB423FD2C18505
:102A5000D169B1F5807F33D0016851E8031F026866
:102A600021F4807142E80313002BF5D1016851E88D
:102A7000051F026821F0010142E80513002BF5D182
:102A8000016851E8051F026821F0400142E8051382
:102A9000002BF5D1202180F842100021016300BFF6
:102AA000016851E8031F026821F0100142E8031396
:102AB000002BF5D1C16B04460846FEF743F82046CB
:102AC00002214163818DC28D891A89B2B9E0818D5D
:102AD00099427FF473AFD269B2F5807F7FF46EAF15
:102AE0000222ADE0416C41F001014164510706D57D
:102AF000BEF1000F03D0416C41F002014164910727
:102B000006D5BEF1000F03D0416C41F004014164D1
:102B1000BCF1000F06D55EEA050103D0416C41F01F
:102B200008014164416C00293FF448AF910604D587
:102B30001DB1044600F0C2FE204601684969426C9E
:102B400001F0400102F0080289184AD0016851E8FA
:102B5000031F026821F4907142E80313002BF5D1A2
:102B6000016851E8051F026821F0010142E80513E0
:102B7000002BF5D1016B01290AD100BF016851E892
:102B8000031F026821F0100142E80313002BF5D166
:102B9000202180F84210002101630168496949063B
:102BA00054D500BF016851E8051F026821F04001BB
:102BB00042E80513002BF5D1C16B002946D043F242
:102BC000C572C0F60002044608460A65FDF7FAFF22
:102BD00000283FF4F3AEE06B016D02B0BDE8B040F9
:102BE00008470446FFF7B2FE0020606402B0B0BDA3
:102BF000891A00BF026852E8032F036822F490721A
:102C000043E80325002DF5D1026852E8052F03683B
:102C100022F0010243E80525002DF5D1202280F89D
:102C200042200022026300BF026852E8032F0368BB
:102C300022F0100243E80325002DF5D1022289B2CB
:102C4000426302B0BDE8B040FFF762BE02B0BDE82B
:102C5000B040FFF77BBE026A32F8023B6FF35F239E
:102C60004B600262C2E60000002804BF01207047EA
:102C700010B5044690F8410028B9002084F84000BF
:102C8000204600F021F8242084F841002068C16823
:102C900021F40051C160204600F070FE20680169F7
:102CA00021F490410161416921F02A014161C1682B
:102CB00041F40051C16000202021606484F841107B
:102CC00084F84210606310BD70B586B0026844F2AB
:102CD0000043C4F2000300219A42CDE90411CDE97A
:102CE0000211019151D041F20001C4F201018A4266
:102CF0007DD10546002643F630000096C4F202005E
:102D0000416941F010014161416901F010010091F8
:102D100000990096016841F001010160006801A975
:102D200000F00100009000984FF4C0600190022074
:102D3000CDE9020603200490072005900020C4F28C
:102D40000200FEF705F940F2A41446F2B840C2F2C0
:102D50000004C4F202004FF00061402284E8470002
:102D60004FF400304FF48063C4E908062046C4E9FC
:102D70000436C4E90666FDF7FBFF002818BFFDF71F
:102D80007BFCAC63A563252429E043F63000009169
:102D9000C4F20200026942F400320261026902F4E4
:102DA00000320092009A0091026842F0080202602C
:102DB000006800F008000090009860200190022058
:102DC000CDE9020103200490072005900020C4F201
:102DD000020000F5406001A9FEF7BAF8262420465B
:102DE00003210322FEF70CFA2046FEF7F7F906B09E
:102DF00070BD000070470000B0B590F84140202C35
:102E00001CBF0220B0BD134600294FF0010218BFBD
:102E1000002B01D11046B0BD4FF0000C21240162FF
:102E20008384C384C0F844C080F8414002680446EB
:102E3000806B43F6750E43F6B505C0F6000EC0F67E
:102E40000005C0E90FE543F2D175C0F60005043274
:102E5000C0E9135CFEF72CF830B11020606420202C
:102E600084F841000120B0BD20686FF0400101608E
:102E7000206850E8050F216840F0800041E8050215
:102E8000002AF5D100221046B0BD000070470000B6
:102E900070470000FEE7000010B584B040F2FC006F
:102EA000C2F2000042F2000C4FF080544FF060621A
:102EB0000021C4F2010C4FF44033C0E90A2401247C
:102EC000CDE90211CDE90011017680F82010C4612E
:102ED00080F83040C0E900C3C0E90211C0E9041421
:102EE000FDF76EFC002818BFFDF7C6FB0820CDE9F2
:102EF000000440F2FC00C2F2000069460294FDF7B3
:102F0000BFFB002818BFFDF7B7FB04B010BD0000E1
:102F100080B582B00020019043F63000C4F2020078
:102F20000168022241F4800101600068022100F47E
:102F30008000019001984620FEF762F9462002B019
:102F4000BDE88040FEF74AB92DE9F04786B000277A
:102F500043F630000597CDE90377CDE90177009777
:102F6000C4F20200016840F2004941F01001016022
:102F70000168C4F2020901F0100100910099009764
:102F8000016809F5406A41F0800101600168002292
:102F900001F0800100910099009701684FF480656D
:102FA00041F001010160016801F001010091009907
:102FB0000097016841F002010160016801F002011F
:102FC000009100990097016841F0080101600068D4
:102FD0004FF4806100F00800009000985046FEF722
:102FE00081F801AE4FF00108504631460195CDE918
:102FF00002880497FDF7ACFF0820CDE90107022500
:1030000009F5006031460395FDF7A2FF302001A9C4
:10301000A1C148463146CDE90475FDF799FF4FF44B
:10302000807001A9A1C10324484631460497059444
:10303000FDF78EFF4FF4007001A9A1C1484631464B
:10304000CDE90474FDF784FF01A880E890015046A3
:103050003146FDF77DFF06B0BDE8F08710B596B0AC
:1030600040F2042000220021C2F20000C4F201025A
:1030700040F2473340F2E7344FF0800C1591CDE930
:103080001311CDE91111CDE90F11CDE90D11CDE9E4
:103090000B11CDE90911CDE90711CDE90511CDE9F4
:1030A0000311CDE90111C0E90023C0E90214C0E910
:1030B0000411C0F818C0FEF727FC002818BFFDF760
:1030C000DBFA4FF48050129040F20420C2F200006C
:1030D00012A9FEF75DFD002818BFFDF7CDFA40F2FA
:1030E0000420C2F20000FFF77BF9002818BFFDF7AB
:1030F000C3FA40F204200024C2F2000010A9CDE976
:103100001044FEF7A3FB002818BFFDF7B5FA6020B6
:10311000CDE9090440F20420C2F2000009A900220E
:10312000CDE90B44CDE90D440F94FFF74DF800288D
:1031300018BFFDF7A1FA40F20420C2F2000009A96D
:103140000422FFF741F8002818BFFDF795FA40F276
:103150000420C2F2000009A90822FFF735F8002870
:1031600018BFFDF789FA40F20420C2F2000009A955
:103170000C22FFF729F8002818BFFDF77DFA002080
:103180000590CDE90300CDE901004FF4005108900E
:1031900040F204200691C2F2000001A9FEF730FBC4
:1031A000002818BFFDF768FA40F20420C2F20000C0
:1031B000FEF7C0FF16B010BDB0B58CB003AC204612
:1031C0002421FDF724F940F24C200025C2F2000032
:1031D0004FF08041C0E900158021816103210391F6
:1031E00002214FF6FF7204910121C0E90252CDE99C
:1031F00005150622CDE909152146CDE900550561E1
:10320000CDE907250B92FEF793FD002818BFFDF7C7
:1032100033FA40F24C20C2F200006946CDE9005575
:10322000FEF714FB002818BFFDF726FA0CB0B0BD5E
:10323000B0B58CB003AC20462421FDF7E8F840F28D
:10324000942040F600010025C2F20000C4F2000103
:10325000C0E900158021816103214FF6FF72CDE99D
:10326000031501210223C0E90252CDE9051506220A
:10327000CDE908312146CDE9005505610792CDE938
:103280000A52FEF755FD002818BFFDF7F5F940F288
:103290009420C2F200006946CDE90055FEF7D6FA47
:1032A000002818BFFDF7E8F90CB0B0BDB0B58CB080
:1032B00003AC20462421FDF7AAF840F2DC2040F6BA
:1032C00000410025C2F20000C4F20001C0E900156F
:1032D000802181610321039102214FF6FF72049145
:1032E0000121C0E90252CDE905150622CDE90915F3
:1032F0002146CDE900550561CDE907250B92FEF782
:1033000017FD002818BFFDF7B7F940F2DC20C2F224
:1033100000006946CDE90055FEF798FA002818BF6D
:10332000FDF7AAF90CB0B0BD10B582B040F2243060
:1033300041F20001C2F20000C4F200010024532255
:1033400042F20F7380E816008021CDE90044C3608B
:103350008161FEF7D9FA002818BFFDF78DF940F218
:103360002430C2F200006946CDE90044FEF76EFA4F
:10337000002818BFFDF780F902B010BD80B586B0F7
:1033800040F26C3040F200420021C2F20000C4F270
:10339000010240F2473342F20F7C4FF0800ECDE93C
:1033A0000411CDE90211CDE90011C0E90023C0E903
:1033B000021CC0E90411C0F818E0FEF7A5FA0028C5
:1033C00018BFFDF759F94FF48050029040F26C306D
:1033D000C2F2000002A9FEF7DBFB002818BFFDF7D0
:1033E0004BF9202000900020019040F26C30C2F296
:1033F00000006946FEF72AFA002818BFFDF73CF9DD
:1034000006B080BD80B58CB040F2B4300021C2F26D
:10341000000044F2000240F2E73C0B91CDE90911B3
:10342000CDE90711CDE90511CDE90311CDE9011170
:10343000C4F2010240F24733C0E9021C016180215D
:10344000C0E900238161FEF75FFA002818BFFDF78D
:1034500013F94FF48050089040F2B430C2F20000EB
:1034600008A9FEF795FB002818BFFDF705F940F203
:10347000B430C2F20000FEF7B3FF002818BFFDF71A
:10348000FBF8602001900020CDE90200059040F299
:10349000B430C2F2000001A90022FEF795FE002818
:1034A00018BFFDF7E9F840F2B430C2F2000001A9FC
:1034B0000422FEF789FE002818BFFDF7DDF840F270
:1034C000B430C2F20000FEF735FE0CB080BD000043
:1034D00080B540F2FC3041F20001C2F20000C4F2BB
:1034E000010100234FF00C0C4FF4E13280E80E0094
:1034F000C0E90333C0E905C3C361FFF7B5FB00288A
:1035000008BF80BDBDE88040FDF7B6B880B540F289
:10351000444044F20041C2F20000C4F20001002322
:103520004FF00C0C4FF4E13280E80E00C0E9033399
:10353000C0E905C3C361FFF797FB002808BF80BD42
:10354000BDE88040FDF798B8FEE70000FEE7000008
:1035500070470000704700009FED161A9FED162A75
:10356000B4EE410AF1EE10FAB8BFB0EE410AB4EE83
:10357000420AF1EE10FAC8BFB0EE420A012812D09A
:10358000042809D0022818BF704740F2D000C2F2C8
:10359000000080ED000A704740F2A800C2F200006F
:1035A00080ED000A704740F28000C2F2000080ED1A
:1035B000000A70470000B4C30000B443FDF79EBD8D
:1035C00070B592B006AC20463021FCF720FF0025F4
:1035D00043F640000595CDE90355CDE90155009529
:1035E000C4F202000168022641F0805101600068C7
:1035F00000F080500090009847F200000095C4F25F
:103600000000016841F480410160006800F48040DE
:1036100000900098012006904FF4803007904FF4FE
:1036200080000D9008200E90A820CDE90F06042000
:10363000119020460C96FDF71BFF10B172B600BF2B
:10364000FEE70F20CDE901064FF4A05004904FF49F
:103650008050059001A805210395FDF70DFE10B1DE
:1036600072B600BFFEE712B070BD00004EF6885083
:10367000CEF20000016841F4700101607047000063
:1036800040F22430C2F20000FEF7AEBC40F26C30D3
:10369000C2F20000FEF7A8BCB0B540F6FF3E0568D8
:1036A000C4F2000E40F2004C7045C4F2010C0FDC75
:1036B000B0F1804F19D040F20043C4F200039842A9
:1036C00013D040F60003C4F2000398420DD011E07D
:1036D00040F60043C4F20003984206D0604504D08F
:1036E0000023C4F20103984204D14B6825F0700214
:1036F00043EA020541F6FF73C4F2000398420FDC6F
:10370000704521DCB0F1804F41D040F20043C4F25B
:10371000000398423BD040F60003C4F2000334E0BB
:1037200043F6FF73C4F2010398421EDC42F2000329
:10373000C4F2000398422AD00023C4F20103984245
:1037400025D0604523D027E040F60043C4F20003B3
:1037500098421CD041F60003C4F20003984216D0F0
:1037600041F60043C4F200030FE044F20003C4F248
:10377000010398420BD044F60003C4F201039842BF
:1037800005D044F20043C4F20103984204D1CB684F
:1037900025F4407243EA02050A688C684B69C462EA
:1037A00040F480648262644504BF09690163026871
:1037B00025F0800142F004021943026001224261B7
:1037C0000160B0BD806B0021C185FFF7BFB800006C
:1037D000806B0168496990F84120212A11D111F0CC
:1037E00080010ED00021C184016851E8031F0268E6
:1037F00021F0C00142E80313002BF5D1202180F80D
:1038000041100168496990F84220222A2BD111F019
:10381000400128D00021C185016851E8031F0268DA
:1038200021F4907142E80313002BF5D1016851E8AF
:10383000051F026821F0010142E80513002BF5D1B4
:10384000016B01290AD100BF016851E8031F02681A
:1038500021F0100142E80313002BF5D1202180F85C
:10386000421000210163416C41F010014164FFF7F7
:103870006DB800000168806B0968C90548BFFFF793
:1038800005BB0021C18400BF016851E8051F026823
:1038900021F0800142E80513002BF5D1016851E8C1
:1038A000031F026841F0400142E80313002BF5D1E9
:1038B00070470000806BFFF7EBBA000090F84210F1
:1038C000222918BF70478268B2F5805F02D1016972
:1038D00000294AD0816AB2F5805F07D00AB902692F
:1038E00022B10268526802F07F0201E00268526869
:1038F0000A70816A01318162C18D01390A04C18572
:1039000000D070470168CA6822F02002CA60CA6805
:1039100022F48072CA604A6922F001024A612021C1
:1039200080F8421000214163026B012A18BFFFF7A3
:1039300061BA81B0016300BF016851E8031F0268EA
:1039400021F0100142E80313002BF5D101680A6849
:10395000D20606D5002200920A68009249680091BA
:103960000099818D01B0FEF7D3BF0168826A496872
:103970006FF35F2122F8021B8262BDE7B0B50446F7
:10398000006804F108030ECB0569194325F440557E
:103990002A4302616269E3691143C268194349F22B
:1039A0000C639A431143C1604169A26921F44071DB
:1039B00041F20043114340F48062C4F201039A4291
:1039C000416102D1FDF71CFD01E0FDF705FDE16954
:1039D0004FF69C7563681922C0F6FF75B1F5004F6C
:1039E000A0FB02011CD15A00DB0FFCF753FC48F28C
:1039F0001F51C5F2EB11A0FB01235A0905F18053B9
:103A000002FB0300322303EBC000A0FB01014FF4D3
:103A1000F87000EA111000EB0210C1F3421118E037
:103A20009A009B0FFCF736FC48F21F51C5F2EB11D0
:103A3000A0FB01235A0902FB0500322303EB00100F
:103A4000A0FB0101F02000EA511000EB0210C1F3CD
:103A50004311084421688860B0BD000040F2FC308A
:103A6000C2F20000FEF774BF40F24440C2F2000010
:103A7000FEF76EBFFEE700000021C0E90011C0E9BB
:103A80000211C0E90411704780B540F26C30C2F2F7
:103A90000000FEF729F840F2FC0040F24A51C2F261
:103AA0000000C2F200010122BDE88040FCF78EBF99
:103AB000018840F6FE73481E82B240F2F800C2F25E
:103AC000000090ED000A9A420DD801EE101AB8EEEF
:103AD000411AB6EE002A21EE021A20EE020A30EE5A
:103AE000010A80ED000A9FED041A9FED042A20EEE2
:103AF000010A80EE020A70473333114200F07F451D
:103B0000012808D180B540F29C40C2F20000FFF7C6
:103B1000B3FFBDE8804040F2F600C2F20000002191
:103B200001707047042810D0022809D001281CBF5A
:103B30009FED0F0A704740F2A400C2F2000008E0B7
:103B400040F2F400C2F2000003E040F2CC00C2F206
:103B50000000B0F900009FED071A00EE100AB8EE61
:103B6000C00A9FED052A20EE010A80EE020A704786
:103B7000000000005D2054390AD7A33C9FED041AD1
:103B80009FED042A20EE010A80EE020A704700BF72
:103B90000AD7A33C5D20543940F20403C2F200036B
:103BA00093ED002A9FED0D3A22EE011A31EE002A24
:103BB00080ED002A20EE832ABEEE003A20EE030AB2
:103BC00030EE023A30EE420A31EE033A31EE000AAC
:103BD00081ED003A82ED000A704700BFD0B35D3F2F
:103BE000FDF79AFAFFF7ECFCFFF7AEF9FFF790F953
:103BF000FFF76EFCFFF750F9FFF7DEFAFFF72EFA3A
:103C0000FFF716FBFFF752FBFFF7FCFBFFF77EFC0D
:103C1000FFF7B4FBFFF788FB40F2B84440F2FC30FA
:103C2000C2F20004C2F2000021468022FEF72CFE00
:103C300040F24440C2F2000021468022FEF724FEFA
:103C400040F22430C2F20000FDF74EFFFFF71CFFE8
:103C500000F00CF840F28C44C2F20004204600F060
:103C600035FA204600F0D0F9F8E700002DE9F041E0
:103C700040F29428C2F200084046FDF7E5FE4046B7
:103C80003C21FEF751F940F2DC25C2F2000528463E
:103C9000FDF7DAFE28463C21FEF746F940F24C26B5
:103CA000C2F200063046FDF7CFFE30463C21FEF75B
:103CB0003BF940F20427C2F200073846FDF7C4FE84
:103CC0003846FEF78DFB38680024416C41F4004112
:103CD000416438460021FEF7B5FB38460421FEF763
:103CE000B1FB38460821FEF7ADFB38460C21FEF744
:103CF000A9FB40F2B437C2F200073846FDF7A4FE34
:103D00003846FEF76DFB38460021FEF79BFB384630
:103D10000421FEF797FB30684FF07C514462D8F8DD
:103D200000004CF6CD4244622868C3F6CC5244628F
:103D300040F28000C2F200000462C0E90044C0E921
:103D4000024400F11003C46140F2D000C2F200004E
:103D500016C3C0E90044C0E9024400F11003C0E901
:103D6000074440F2A800C2F2000016C300F110039D
:103D7000C0E90044C0E9024416C3C0E90744BDE8F5
:103D8000F081000080B5FFF793FE9FED451AB6EE77
:103D9000002A20EE011A31EE021ABCEEC11A48F2D6
:103DA0001F5111EE100AC5F2EB11A0FB01125209CE
:103DB0006423BDEEC00A02FB130240F2385010EE3D
:103DC000101AC2F20000417040F29C41C2F20001A0
:103DD00091ED011A9FED334A91ED000A21EE041A8C
:103DE00031EE021A20EE040A91ED023ABDEEC11A3C
:103DF00030EE020A827011EE102ABDEEC00AA0F861
:103E0000032010EE102A23EE040A91ED035A30EE3F
:103E1000020ABDEEC00AA0F8052010EE102A25EE19
:103E2000040A30EE020ABDEEC00AA0F8072010EE28
:103E3000102A91ED040AA0F80B2020EE040A30EEBF
:103E4000020ABDEEC00A10EE102A91ED050AA0F894
:103E5000092020EE040A30EE020ABDEEC00A10EE80
:103E6000101AA0F80D10AA2101704FF4FC41A0F81F
:103E70000F1000214FF0FF3283185B780132194494
:103E80000E2AC173F8D140F2FC3040F23851C2F230
:103E90000000C2F200011122BDE88040FEF7ACBF75
:103EA0000000C84200007A4410B52DED0C8B00EEE6
:103EB000100A9FED4F1AB8EE400A012080EE01AAC9
:103EC000FFF730FE0420B0EE408AFFF72BFE022001
:103ED000B0EE409AFFF726FE38EE082A32EE492A65
:103EE00040F2040032EE402AB0EE083AC2F200007E
:103EF00082EE03BA9FED3F2A90ED001A39EE404A58
:103F000084EE02CA38EE092A32EE000A21EE031AC4
:103F100080EE010A40F29C44C2F2000494ED052AAE
:103F20009FED351A84ED01BA84ED00CA84ED020AD2
:103F300020EE0A0A30EE020AB4EE410AF1EE10FA5F
:103F400084ED050A0BDD9FED2D2A00BF30EE020A3D
:103F5000B4EE410AF1EE10FAF8DC84ED050A94EDB6
:103F6000050A9FED271AB4EE410AF1EE10FA0ADABB
:103F70009FED242A30EE020AB4EE410AF1EE10FA67
:103F8000F8DB84ED050A94ED058AB0EE480A00F0EE
:103F900005F9B0EE409AB0EE480A00F0A7F92CEE11
:103FA000000A2BEE091A31EE40DAB0EE480A00F0B2
:103FB0009DF9B0EE409AB0EE480A00F0EFF82CEE12
:103FC000000A2BEE091A31EE000A94ED032A94ED53
:103FD000043A2DEE0A1A20EE0A0A32EE011A30EEE9
:103FE000030A84ED031A84ED040ABDEC0C8B10BDAA
:103FF00000007A44D9B3DD3FDA0F4940DA0FC9C077
:10400000DA0F49C0DA0FC94000214FF0FF3200BF7C
:1040100083185B7801320D2A1944F9D1827BC9B229
:1040200091421CBF0320704770B5C47B022C09D09D
:10403000012C47D1417B21B104460846FFF760FDC2
:1040400020460124B0F90320B0F90110B0F9053081
:104050009FED1D1A02EE102AB8EEC22A00EE101AC9
:10406000C2EE010A02EE103AB8EEC00AB8EEC22A59
:1040700080EE010A82EE011A40F20406C2F2000646
:10408000331D06F1080106F10C0205461846FFF73C
:1040900083FD96ED010AFFF771FD0120FFF75CFA41
:1040A00096ED020AFFF76AFD0420FFF755FA96ED38
:1040B000030AFFF763FD0220FFF74EFA0020E873C2
:1040C000204670BD032070BD00007A4440F250517C
:1040D00040F2B44CC2F20001C2F2000C09789CF824
:1040E0000030C91A803101EB516222F07F02891A37
:1040F00010293CBF00207047B0B540F2B84E03F025
:104100007F01C2F2000E1EF80110AA292BD1002255
:10411000002100BFD41804F07F041EF80440D5B27B
:1041200021440D2D02F10102F4D303F10E0202F03D
:104130007F021EF80220C9B2914214D14FF0FF3124
:104140009CF800204B1C1A4402F07F021EF802204B
:1041500001444A700F2B1946F2D19CF8000000F17F
:104160001001102001E0591C002001F07F018CF8A3
:104170000010B0BD4100080218BF04200A0E18BF8D
:1041800040F001004FF07F4232EA010108BF40F0E9
:104190000200012808BF05207047000010EE101A29
:1041A00008B5444A6846B2EB410F28D94FF0E640C3
:1041B000B0EB410F94BF00204FF0FF30009000980B
:1041C000002861DB60EE000A10F0010F45D010F00E
:1041D000020FDFED391A9FED391A00EEA11ADFED5B
:1041E000381A40EE811A21EEA01AF0EE400A40EE95
:1041F000010A08BFF1EE600AB0EE600A08BD314B5B
:1042000021F0004293423CD911F0004FDFED2E0A1D
:1042100020EE201ADFED2D0A19BF31EE601A71EE83
:10422000200A31EE201A71EE600ABDEEE01A11EE9E
:10423000100A9FED271A00F0030000EEC10A9FED5F
:10424000251A009000EEC10A9FED231A00EEC10A64
:104250009FED221A00EEC10AB1E79FED211A9FEDF2
:10426000210A10F0020F00EE810A9FED1F1A00EEE6
:10427000801AB7EE000A00EE810A18BFB1EE400ABC
:1042800008BD00F00FF99AE710EE100A4000B0F1F7
:104290007F4F3CBFB7EE000A08BD07D14FF00100C9
:1042A000FCF7E4F8BDE8084000F0ECB8BDE80840D1
:1042B00000F0E4B8B61F927E336D4CB9DA82083C48
:1042C000A0AA2ABE490E494683F9223F0000004BAE
:1042D0000000C93F00A0FD390020A2331A61342C30
:1042E000B93AB2BACA9F2A3DDDFFFFBE00B510EE53
:1042F000101A2DED028B81B0524A6846B2EB410F85
:104300002ED94FF0E640B0EB410F94BF00204FF0A4
:10431000FF3000900098B0EE408A00286ADB10F071
:10432000010F4BD068EE080A9FED471A9FED470A30
:1043300000EE810A9FED461A10F0020F00EE801A7F
:10434000B7EE000A00EE810A02BF01B0BDEC028B9D
:1043500000BD00BF01B0B1EE400ABDEC028B00BD54
:104360003C4B21F00042934241D911F0004FDFED68
:104370003A0A20EE201ADFED390A19BF31EE601A31
:1043800071EE200A31EE201A71EE600ABDEEE01ADD
:1043900011EE100A9FED321A00F0030000EEC10A80
:1043A0009FED301A009000EEC10A9FED2F1A00EE2B
:1043B000C10A9FED2E1A00EEC10AABE728EE080AEB
:1043C0009FED2B1ADFED2B0A10F0020F40EE010AD1
:1043D0009FED291A00EE201A61EE000AB0EE480A9D
:1043E00008EE200AB6D101B0BDEC028B00BD00F092
:1043F00059F88FE718EE100A4000B0F17F4F0DD248
:1044000018EE100AFFF7B6FE042808BF00F042F8C5
:10441000B0EE480A01B0BDEC028B00BD09D101200D
:10442000FCF724F801B0BDEC028B5DF804EB00F062
:1044300029B801B0B0EE480ABDEC028B5DF804EB80
:1044400000F01CB8B61F927EB93AB2BACA9F2A3D94
:10445000DDFFFFBE490E494683F9223F0000004BB5
:104460000000C93F00A0FD390020A2331A61342C9E
:10447000336D4CB9DA82083CA0AA2ABE30EE000A9D
:1044800070470000DFED020A80EEA00A70470000CE
:10449000000000009FED020A20EE000A70470000B5
:1044A000000000102DE9F0014FF07F42B2EB410F08
:1044B0009FBF4FF0FF310160BDE8F00170474FF042
:1044C000004242EA0123C1F3C752783A551112F073
:1044D0001F0C434CCCF120067C44C1F3C752A2F11F
:1044E00078024FEA621204EB820254F8254008BFBA
:1044F000D2E9015612D0556804FA0CF425FA06F7F1
:104500003C43976805FA0CF527FA06F8D26807FAD3
:104510000CFCF24045EA08054CEA0206A4FB034CF9
:10452000A5FB0352A6FB03631D449D4234BF012635
:1045300000261319334416B1934202D903E0934283
:1045400001D2012200E00022624402F1200C920616
:10455000DC0C42EA443200EE102A5B03DFED210A54
:10456000F8EEC01A00EE103A4FEA9C1C11F0004F12
:10457000B8EE400AC0F800C020EE201A00EE105A33
:10458000DFED190AB8EE400A20EE200A71EE810A2A
:1045900070EE800A10EE902A02F500626FF30B02B3
:1045A00000EE902A70EEE11A31EEC11ADFED101A1A
:1045B00030EE411A9FED0D0A20EE800A01EE210A2D
:1045C0009FED0C1A00EE810A04BFBDE8F0017047B0
:1045D000CCF180510160BDE8F001B1EE400A7047B6
:1045E00038010000000000360000802C22AAFD29BE
:1045F000DB0FC92F0000C92FF1EE100A4FF6FF7133
:10460000C0F2C03120EA010040F04070E1EE100A33
:1046100070470000000000006E83F9A22915444E87
:10462000D15727FCC0DD34F5999562DB4190433CBE
:10463000AB6351FE00000000000000000102030413
:104640000607080900000000010203040006101616
:104650000006101678460008000000202000000028
:10466000EC0100089846000820000020380B0000EC
:104670000C020008000000000024F4009A99193E82
:104680000000000000000000000000000100000029
:08469000100000000000000012
:040000050800018965
:00000001FF
